:100000008FC10000BEC10000BCC10000BAC1000029
:10001000B8C10000B6C10000B4C10000B2C1000008
:10002000B0C10000AEC10000ACC10000AAC1000018
:10003000A8C10000A6C10000A4C10000A2C1000028
:10004000A0C100000C942C119CC100009AC10000BA
:1000500098C1000096C1000094C100000C94581093
:1000600090C100000C9422100C94F80F8AC100007B
:1000700088C1000086C1000084C1000082C1000068
:100080000C94FE107EC100007CC100007AC100000B
:1000900078C1000076C1000074C100000C945A11B0
:1000A00070C100006EC100000C94D0106AC1000045
:1000B00068C1000066C1000064C100000C94A21079
:1000C00060C100005EC100005CC100005AC10000B8
:1000D00058C1000056C1000054C1000052C10000C8
:1000E00050C1000000407A10F35A00A0724E180967
:1000F0000010A5D4E80000E87648170000E40B548F
:10010000020000CA9A3B000000E1F505000080965D
:100110009800000040420F000000A086010000008F
:10012000102700000000E803000000006400000049
:1001300000000A00000000000100000000002C7612
:10014000D888DC674F0823DFC1DFAE59E1B1B7962D
:10015000E5E3E453C63AE651997696E8E6C284268A
:10016000EB898C9B62ED407C6FFCEFBC9C9F40F266
:10017000BAA56FA5F490055A2AF75C936B6CF967E2
:100180006DC11BFCE0E40D47FEF520E6B500D0EDA7
:10019000902E0300943577050080841E080000200F
:1001A0004E0A000000C80C333333330F986E1283AD
:1001B0001141EF8D2114893BE65516CFFEE6DB1881
:1001C000D1844B381BF77C1D901DA4BBE424203246
:1001D00084725E228100C9F124ECA1E53D27005E16
:1001E000BCE2613FDD83C29C7E20A3FD1F41009DD8
:1001F00023BE46DB65F88C11AF32CA57E9740000A4
:100200002100240027002A002D00300033000101C6
:100210000000040107010A01000022002500280057
:100220002B002E00310034000201000005010801FE
:100230000B0100000A0B02090C0D0E080703040154
:1002400000000000000000000000000000000000AE
:10025000000000000000000000000000000012117B
:10026000100000000000000000000000000000007E
:100270000000000000000000000020002300260015
:1002800029002C002F0032000001000003010601AC
:10029000090105050505070508080808020202020C
:1002A0000A0A080804040404010101010101010112
:1002B0000303030303030303040707070C0C0C0CDD
:1002C0000C0C0C0C020202020606060606060606C6
:1002D0000B0B0B0B0B0B0B0B010210202008081053
:1002E00020401020408002010201080402010102A6
:1002F000040810204080804020100804020180047F
:1003000002018040201008040201080402010102D9
:1003100004081020408001020408102040807E1252
:1003200011241FBECFEFD1E2DEBFCDBF00E00CBF76
:1003300013E0A0E0B2E0E2E7FCE300E00BBF02C0A4
:1003400007900D92A03EB107D9F726E0A0EEB3E0EA
:1003500001C01D92A932B207E1F711E0C0E9D1E076
:1003600000E006C021970109802FFE010E941E1C9B
:10037000CF38D10780E00807A9F70E94C9120C9472
:10038000371E3ECEE6E3F5E0A089B18982E08C938A
:10039000A485B5851C92A685B78580E18C93108EC7
:1003A000A489B58986E08C93A289B3898C918061F8
:1003B0008C93A289B3898C9188608C93A289B3892C
:1003C0008C9180688C930288F389E02D80818F7DE9
:1003D00080830895AF92BF92CF92DF92EF92FF9207
:1003E0000F931F93CF93DF936C017B018B01040F5D
:1003F000151FEB015E01AE18BF08C017D10759F0F9
:100400006991D601ED91FC910190F081E02DC6013A
:100410001995892B79F7C501DF91CF911F910F9124
:10042000FF90EF90DF90CF90BF90AF900895089528
:1004300008950895FC01538D448D252F30E0842FBD
:1004400090E0821B930B541710F0CF9608950197FC
:100450000895FC01918D828D981761F0A28DAE0FE9
:10046000BF2FB11D5D968C91928D9F5F9F73928F70
:1004700090E008958FEF9FEF0895FC01918D828D9C
:10048000981731F0828DE80FF11D858D90E0089569
:100490008FEF9FEF0895FC01918D228D892F90E0C1
:1004A000805C9F4F821B91098F739927089586E383
:1004B00095E0F1DF21E0892B09F420E0822F0895F7
:1004C000FC01A48DA80FB92FB11DA35ABF4F2C91C9
:1004D000848D90E001968F739927848FA689B789C0
:1004E0002C93A089B1898C91837080648C93938DB7
:1004F000848D981306C00288F389E02D80818F7D5A
:1005000080830895EF92FF920F931F93CF93DF9311
:10051000EC0181E0888F9B8D8C8D98131AC0E8893F
:10052000F989808185FF15C09FB7F894EE89FF890E
:100530006083E889F98980818370806480839FBFAC
:1005400081E090E0DF91CF911F910F91FF90EF90AC
:100550000895F62E0B8D10E00F5F1F4F0F731127BC
:10056000E02E8C8D8E110BC00FB607FCFACFE889F8
:10057000F989808185FFF5CFCE01A2DFF2CFEB8D27
:10058000EC0FFD2FF11DE35AFF4FF0829FB7F89457
:100590000B8FEA89FB8980818062D0CFCF93DF9374
:1005A000EC01888D8823B1F0AA89BB89E889F98993
:1005B0008C9185FD03C0808186FD0CC00FB607FCC1
:1005C000F7CF8C9185FFF2CF808185FFEDCFCE01F3
:1005D00077DFEACFDF91CF91089580E090E0892B1B
:1005E00021F065DF81110E94000080E090E0892BFE
:1005F00049F080E090E0892B29F00E9400008111F1
:100600000E94000080E090E0892B49F080E090E0BB
:10061000892B29F00E94000081110E94000080E0D7
:1006200090E0892B49F080E090E0892B29F00E942E
:10063000000081110C94000008958150823108F06F
:100640005AC0E82FF0E08827E75DFC4F8F4F0C94ED
:100650001E1C49034D033B03410345037B03500329
:1006600056035A036003640368036E0372037B033B
:1006700076037C038003809180008F7780938000D5
:100680000895809180008F7DF9CF80918000877FD1
:10069000F5CF84B58F7784BD089584B58F7DFBCF6A
:1006A0008091B0008F778093B00008958091B00062
:1006B0008F7DF9CF809190008F778093900008957F
:1006C000809190008F7DF9CF80919000877FF5CF4A
:1006D0008091A0008F778093A00008958091A00062
:1006E0008F7DF9CF8091A000877FF5CF8091200189
:1006F0008F77809320010895809120018F7DF9CF1D
:1007000080912001877FF5CF1F93CF93DF93282F10
:1007100030E0F901EE5CFD4F8491F901E852FD4FA4
:10072000D491F901EE56FD4FC491CC23A1F0162FC0
:10073000811183DFEC2FF0E0EE0FFF1FE85EFD4F2D
:10074000A591B4918FB7F894EC91111108C0D09590
:10075000DE23DC938FBFDF91CF911F910895DE2BB5
:10076000F8CFCF93DF9390E0FC01E852FD4F249146
:100770008E569D4FFC0184918823D1F090E0880F24
:10078000991FFC01E250FE4FA591B491FC01E85E77
:10079000FD4FC591D49161110EC09FB7F8948C9113
:1007A000E22FE0958E238C932881E223E8839FBF7C
:1007B000DF91CF9108958FB7F894EC91E22BEC93F1
:1007C0008FBFF6CF3FB7F894809192049091930435
:1007D000A0919404B091950426B5A89B05C02F3F25
:1007E00019F00196A11DB11D3FBFBA2FA92F982F57
:1007F0008827BC01CD01620F711D811D911D42E052
:10080000660F771F881F991F4A95D1F708958F9219
:100810009F92AF92BF92CF92DF92EF92FF924B01E5
:100820005C01D0DF6B017C01CDDF6C197D098E0985
:100830009F09683E734081059105B0F321E0821A5B
:100840009108A108B10888EEC80E83E0D81EE11C0B
:10085000F11C81149104A104B10431F7FF90EF90D1
:10086000DF90CF90BF90AF909F908F9008952FB75B
:10087000F89460918E0470918F048091900490910F
:1008800091042FBF0895AF92BF92CF92DF92EF9263
:10089000FF920F931F93CF93DF936B017A01EC01CB
:1008A000C757DB4F28813CE0389F8001399F100DEE
:1008B0001124A0902605B12C27FF1FC0FB01118237
:1008C000108288818F5F888388819801280F311D6D
:1008D00087FD3A95F6012A153B051CF488818C307A
:1008E000BCF180819181049680349C4908F471C0E8
:1008F000F6018081918104966EC088819801280F4D
:10090000311D87FD3A952A153B05DCF68881A80143
:10091000480F511D87FD5A95FA01EE0FFF1FE40F96
:10092000F51FEA56FB4F808186FFCBCF8881F80107
:10093000E80FF11D87FDFA95CF01EE0FFF1FE80FBD
:10094000F91FEA56FB4F808160E08F73DDDEB9CF7F
:10095000808191812881A801420F511D27FD5A9560
:100960009A01FA01EE0FFF1FE20FF31FEA56FB4F49
:1009700021813281820F931FF701918380838881C7
:100980009801280F311D87FD3A95F901EE0FFF1FE1
:10099000E20FF31FEA56FB4F808186FF21C088815A
:1009A000080F111D87FD1A95F801EE0FFF1FE00FCC
:1009B000F11FEA56FB4F808161E08F73DF91CF9189
:1009C0001F910F91FF90EF90DF90CF90BF90AF906D
:1009D0009BCE80E49CE9F701918380838FEF88832D
:1009E000DF91CF911F910F91FF90EF90DF90CF900B
:1009F000BF90AF900895DC0180E0615090F09D9130
:100A00009827E92FEF70F0E0E252FE4F2491E92F92
:100A1000E295EF70F0E0E251FE4FE491822F8E27D5
:100A2000ECCF0895DC012C911196ED91FC91F89496
:100A30008181822B81839281322F309593239283FF
:100A400087E090E00197F1F781818323818383E23E
:100A500090E00197F1F790817894EFECF0E0319716
:100A6000F1F7922381E009F480E00895FC01908180
:100A70000180F281E02D292F209560FF14C0F894A9
:100A80008281822382838181892B8183A3E2B0E0EA
:100A90001197F1F78281982B9283789487ED90E0FB
:100AA0000197F1F70895F8948281822382838181EE
:100AB000892B8183AFEFB0E01197F1F78281982BFA
:100AC000928378948FE090E0EBCFEF92FF920F93B8
:100AD0001F93CF93DF93EC01E62E08E010E0FF2494
:100AE000F39461E08E2D8F2109F460E0CE01BEDF2A
:100AF000FF0C01501109A9F7F894E981FA8191815D
:100B00008881809589238183E981FA819281888116
:100B10008095892382837894DF91CF911F910F91E3
:100B2000FF90EF900895FC0190810180F281E02D0B
:100B3000F8948181292F20958223818378943DE741
:100B400043E050E0315029F1DA011197F1F780814B
:100B50008923C1F3F8948281822382838181892B46
:100B600081837894ABE7B7E01197F1F7F89481812E
:100B700082238183A3E1B1E01197F1F7808198236B
:100B800081E009F080E07894E3E6F6E03197F1F750
:100B9000089580E008958F929F92AF92BF92CF9276
:100BA000DF92EF92FF920F931F93CF93DF93EC01AD
:100BB000F62EE72E942E88859985B5DFC884D984D2
:100BC00065E5C60182DF8E015E0188E0A80EB11CDA
:100BD000F80161918F01C60178DF0A151B05C1F785
:100BE0006EEB8885998571DF8F2C0F2D1E2DA884C3
:100BF000B98488E0C82ED12CF12CEE24E394C501F1
:100C000011DF8111FE28EE0CF1E0CF1AD108B9F7FF
:100C1000F801F1928F018E2F8819891540F388858C
:100C20009985DF91CF911F910F91FF90EF90DF9009
:100C3000CF90BF90AF909F908F9075CF85ED8093B0
:100C4000BC008091BC0084FDFCCF10922D0508955E
:100C500020914204260F3327331F21323105ECF453
:100C600020912D05FC0190E080E0243069F082E0C5
:100C70000895A09142042191AC014E5D5B4FA40FF9
:100C8000B52FB11D2C930196861798F380914204DD
:100C9000680F6093420480E0089581E00895E09138
:100CA000310580913005E81730F4F0E0EE5FFB4F3E
:100CB000808190E008958FEF9FEF08959091310526
:100CC000809130052FEF3FEF981748F4E92FF0E0BF
:100CD000EE5FFB4F208130E09F5F90933105C901AB
:100CE00008958091300590913105891B990B0895E5
:100CF000CF92DF92EF92FF920F931F93CF93DF93E8
:100D00007C01CB018A0120910104222389F0EB01AF
:100D10006B01C40ED51ECC15DD0561F06991D701BC
:100D2000ED91FC910190F081E02DC7011995F3CF71
:100D3000642F8EDFC801DF91CF911F910F91FF903B
:100D4000EF90DF90CF900895CF93DF931F92CDB7B0
:100D5000DEB76983209101042223F9F020912E054A
:100D6000203258F021E030E0FC013383228390E010
:100D700080E00F90DF91CF91089580912F05E82FAB
:100D8000F0E0EF51FC4F998190838F5F80932F05A6
:100D900080932E0581E090E0ECCF61E0CE010196DA
:100DA00057DFF8CFCF93FC01C48121E020930104E9
:100DB000C093E00310922F0510922E058385682BB7
:100DC00083ED95E0C1DF90912E05913208F03FC090
:100DD00080912D058111FCCF82E080932D0581E06B
:100DE00080932C058FEF8093650410928704909375
:100DF0008604A1EEB3E0E6E6F4E080E098132FC0AD
:100E00001092880480918804CC0FC82BC09388046A
:100E100080912B05813039F510922B058091880443
:100E20008093BB008091BC0083FDF8CF85EC80935C
:100E3000BC0080912D058230E1F3809165048F3FE5
:100E400031F080916504803211F080916504109238
:100E50002F0510922E0510920104CF9108952D9127
:100E600021938F5FCBCF85EEE2CF089590E080E0B5
:100E70000895FC01838194818230910538F0880FB8
:100E8000991F880F991F05970197F1F70895EF9221
:100E9000FF920F931F93CF93DF93EC01062F18E07F
:100EA00061E088815EDCCE01E4DFE02EF12C60E0C1
:100EB00000FF61E0898155DCCE01DBDF60E08881E5
:100EC00050DCCE01D6DFF594E7940E2D115041F79A
:100ED00061E0888146DC60E0898143DCCE01C9DFC6
:100EE00060E088813EDCCE01C4DF298130E0F90179
:100EF000EE5CFD4F8491F901E852FD4F0491F90138
:100F0000EE56FD4F1491112321F1811196DBE12F53
:100F1000F0E0EE0FFF1FE858FD4FA591B491EC9162
:100F20000E2311E009F410E0111103C061E0898182
:100F300018DCCE019EDF61E0888113DCCE0199DFF1
:100F4000812F8170DF91CF911F910F91FF90EF90D2
:100F5000089510E0EBCFCF93DF93EC0161E089813E
:100F600000DCCE0186DF60E08881FBDBCE0181DF23
:100F700060E08981F6DBCE01DF91CF917ACFCF930C
:100F8000DF93EC0161E08981ECDBCE01DF91CF9151
:100F900070CF6F927F928F929F92AF92BF92CF92BB
:100FA000DF92EF92FF920F931F93CF93DF9300D0C6
:100FB0001F92CDB7DEB77C01FA0130E067FF02C0B7
:100FC000619531E0309709F041C001113FC01982AD
:100FD0001A821B828FE38C83C701D1DF60E4C701D3
:100FE00056DFC701B8DFC701CADF60ECC7014FDFBA
:100FF0008E010F5F1F4F6E01B5E0CB0ED11CF801C3
:1010000061918F01C70143DF0C151D05C1F7C701B1
:10101000A2DFC701B4DFD70112966C916F706058E0
:10102000C70135DFC7010F900F900F900F90DF9130
:10103000CF911F910F91FF90EF90DF90CF90BF90D5
:10104000AF909F908F907F906F9085CFCE0101964B
:101050004C013E0193E0691A71086401A62E660FE7
:10106000BB0810E4CF01B5010E940A1CAC01982F07
:1010700081110CC0309751F4011108C0F6011382A0
:10108000332379F0F601138330E00BC0425B5D4FF0
:10109000DA018C91D60113968C93911102C0EF2B3B
:1010A00079F3FB0181E0C81AD1086C147D04D1F6F4
:1010B000222309F491CF41E050E04C0F5D1F4C5FBB
:1010C0005F4FD4019D914D01FD013197822F8078B2
:1010D000892B8083220F4A175B0799F77DCFFC018C
:1010E00011AE10AE08958F929F92AF92BF92CF92A1
:1010F000DF92EF92FF920F93CF93DF9300D000D057
:1011000000D0CDB7DEB77C016C0182E1C80ED11CE6
:10111000F701828D938D07DD6CECF701828D938D45
:10112000D4DC64E4F701828D938DCFDCF701858DEB
:1011300080FF64C049E0BE016F5F7F4FC6012BDDB9
:1011400068E0CE01019657DC998589135EC06981FC
:101150007A81072E000C880B990B0E94F01920E071
:1011600030E040E85DE30E944F1A4B015C0120E053
:1011700030E04CE552EC0E94EA1987FF06C0812C52
:10118000912C9EEFA92E92ECB92EF70180829182CC
:10119000A282B3826701F1E2CF0ED11C20E030E0E1
:1011A00048EC52E4C501B4010E944F1A0E94C51BCD
:1011B0009B01AB0177FF04C044275527461B570B03
:1011C00066EF37FF6AE001E020EEC601E2DEF701DC
:1011D000608171818281938129960FB6F894DEBF78
:1011E0000FBECDBFDF91CF910F91FF90EF90DF90B9
:1011F000CF90BF90AF909F908F90089542E0BE0136
:101200006F5F7F4FC601C7DCA2CF812C912CA12C30
:1012100083ECB82EBACF61E088E176DA60E088E14D
:1012200073CA0F931F93CF93DF93EC0120DB0E81E2
:101230001F81012E000C220B330B601B710B820BE4
:10124000930B613177428105910550F010DB7F836C
:101250006E838A819B8147DF0E94C51B7D836C83DF
:10126000DF91CF911F910F9108950F931F93CF930B
:101270008C01C62F97DD6C2F6460C80193DD6C2F45
:101280006B7FC8018FDD83EC90E00197F1F7CF9180
:101290001F910F9108950F931F93CF93DF938C01AC
:1012A000D62FC42F607F642BE0DF80E1D89FB00190
:1012B00011246C2BC801DF91CF911F910F91D5CFD5
:1012C000CF93DF9300D000D01F921F92CDB7DEB72F
:1012D00028E0E6E0F2E0DE01119601900D922A95F9
:1012E000E1F7FC012085241710F44FEF420F50E086
:1012F000440F551F21E030E02C0F3D1F420F531FBC
:10130000FA012081620F606840E028960FB6F894D9
:10131000DEBF0FBECDBFDF91CF91BDCF0F931F9327
:10132000CF93DF938A01EC01A696462F60E0CE01B1
:10133000C7DFF8014481558160817181CE01DF9161
:10134000CF911F910F9146C841E0A5DF81E090E069
:101350000895EF92FF920F931F93CF93DF9300D0E6
:101360001F92CDB7DEB786E395E073D886E395E0AC
:1013700070D88E010F5F1F4F78018A3339F0F80162
:1013800081938F0186E395E064D8F7CFC7010E946F
:101390007517182F86E395E05CD88053990B82303F
:1013A000910518F4682F812FAFD986E395E051D8C5
:1013B0008A3011F08D30C9F786E395E05ED88A3027
:1013C00019F486E395E045D80F900F900F900F9099
:1013D000DF91CF911F910F91FF90EF900895EF92C1
:1013E000FF920F931F93CF93DF93EC017B018A0150
:1013F00088819981009729F02A813B81241735073C
:1014000088F4B8016F5F7F4F0E944B1D009791F0E9
:10141000998388831B830A832C813D81232B11F4BC
:10142000FC0110821D830C83B701888199810E9481
:10143000301E0CC088819981009711F00E94C21C57
:10144000198218821D821C821B821A82CE01DF91B2
:10145000CF911F910F91FF90EF900895FC011182A1
:1014600010821382128215821482FB0101900020E7
:10147000E9F73197AF01461B570BB1CFFB01019044
:101480000020E9F73197AF01461B570BDC01ED91C6
:10149000FC910280F381E02D19948F929F92AF927C
:1014A000BF920F931F93CF93DF93CDB7DEB7A19772
:1014B0000FB6F894DEBF0FBECDBF19A2423008F4BC
:1014C0004AE08E010F5D1F4F842E912CB12CA12C70
:1014D000A50194010E94031BE62FB901CA01EA305D
:1014E000FCF4E05DD801EE938D01232B242B252BFA
:1014F00079F790E080E0109721F0BD0186E395E058
:10150000BDDFA1960FB6F894DEBF0FBECDBFDF9151
:10151000CF911F910F91BF90AF909F908F900895A2
:10152000E95CE0CFCF92DF92EF92FF92CF93DF930F
:101530006C01990FEE08FF08F7FE1FC06DE286E30D
:1015400095E00E948202EC0166277727CB016C1997
:101550007D098E099F094AE0A0DFC80FD91F62E804
:1015600072E086E395E08ADF8C0F9D1FDF91CF91BB
:10157000FF90EF90DF90CF9008954AE0C701B60149
:101580008CDFEC01ECCFCF93DF93BC0186E395E0D9
:1015900075DFEC0162E872E086E395E06FDF8C0FA7
:1015A0009D1FDF91CF9108954F925F926F927F922E
:1015B0008F929F92AF92BF92CF92DF92EF92FF9263
:1015C0006B017C01AC019B010E94FA1B65E872E093
:1015D00081111AC046015701E894B7F82FEF3FEF89
:1015E0004FE75FE7C501B4010E94FA1B811124C0D7
:1015F0002FEF3FEF4FE75FE7C501B4010E94EA1903
:101600001816D4F469E872E086E395E037DF7C01D0
:1016100062E872E086E395E031DF8E0D9F1DFF905A
:10162000EF90DF90CF90BF90AF909F908F907F9082
:101630006F905F904F9008952FEF3FEF4FE75FE47B
:10164000C701B6010E94F61B18161CF46DE872E083
:10165000DBCF2FEF3FEF4FE75FECC701B6010E94F2
:10166000EA1987FDF3CF20E030E0A901C701B601F8
:101670000E94EA19B12CA12C87FF0AC06DE286E313
:1016800095E00E9482025C01F7FAF094F7F8F0947A
:101690002AE037ED43EA5BE3C701B6010E94611B14
:1016A0002B013C010E94CA1B6B017C010E94EE19B8
:1016B0009B01AC01C301B2010E94601B2B013C01E4
:1016C0004AE0C701B601E9DE7C01EA0CFB1C6EE2D0
:1016D00086E395E00E948202E80EF91E20E030E0E9
:1016E00040E251E4C301B2010E944F1A2B013C01B8
:1016F0000E94CA1B4B01B12CA12C4AE0C501B401C8
:10170000CCDEE80EF91EC501B4010E94EE199B0162
:10171000AC01C301B2010E94601B20E030E040E256
:1017200051E40E944F1A0E94CA1B90E080E04AE0F8
:10173000B4DEE80EF91E6CCFA1CECF92DF92EF920D
:10174000FF92CF93DF93EC016CDD8A819B81CBDC30
:1017500020E030E04CE553E40E94F61B181624F11B
:101760008A819B81C0DC20E030E040EA51EC0E949D
:10177000EA1987FD2AC08A819B81B5DC20E030E030
:101780004CE552E40E94F61B181614F569E972E064
:1017900086E395E0D1DF8A819B81A5DC05DFCE0160
:1017A0003ADDC1E0D0E009C0CEEFDFEF61E972E0E1
:1017B00086E395E0C1DFCE01B5DECE01DF91CF91AA
:1017C000FF90EF90DF90CF900895CDEFDFEFEECF59
:1017D0008A819B8188DC6B017C016C817D81072E75
:1017E000000C880B990B0E94F0199B01AC01C701FA
:1017F000B6010E94601B20E030E040EA51E40E9404
:10180000F61B18164CF46EEA72E086E395E094DF5E
:101810008C819D8187DEC3CFD0E0C0E0CECF4F92D8
:101820005F926F927F92BF92CF92DF92EF92FF9280
:101830000F931F93CF93DF938C017B01DC015E96A6
:101840008C91803308F055C061E08EE10E94B103B5
:10185000F801868D282F30E0F901EE0FFF1FE20F0F
:10186000F31FEA56FB4F9081907C9E619083D801D4
:101870005F961C925F9790961C922CE0622F0E94BC
:10188000FE1B829FB001112430E020E0AB01420F2B
:10189000531FFA01EE0FFF1FE40FF51FEA56FB4F2F
:1018A000908196FD17C02F5F3F4F2C30310571F7A7
:1018B000813009F0A4C01092800082E08093810002
:1018C0001092850010928400B19A80916F0082601E
:1018D00080936F00D8015E96EC918E2F90E0FC0112
:1018E000EE0FFF1FE80FF91FEA56FB4F808180645F
:1018F0008083F801B68CFFE2FB1508F456C0D801CE
:1019000090968C91909758E5C52E52E0D52EC81A26
:10191000D10887FDD394CC0CDD1CCC0CDD1C5F966C
:101920008C91C8E8D0E0C81BD10987FDD395CC0FB6
:10193000DD1FCC0FDD1F2E010D2E000C6608770871
:10194000D701E5EBEE16F10414F0A4EBB0E096013C
:101950000D2C000C440B550B241935094609570969
:101960000E944B1B24EB30E040E050E00E94251B1E
:10197000420E531E641E751E4C165D062CF0E601C9
:101980004C145D040CF4E2012297CC0FDD1F2FB73D
:10199000F8948B2D90E0FC01EE0FFF1FE80FF91F6C
:1019A000EA56FB4FD283C1832FBF63ED72E086E31B
:1019B00095E0C2DEC701B6DD68EE73E080E090E03E
:1019C0000E940704D8015E96EC918E2F90E0FC01F6
:1019D000EE0FFF1FE80FF91FEA56FB4F80818F7B48
:1019E0008083DF91CF911F910F91FF90EF90DF9057
:1019F000CF90BF907F906F905F904F90089582300E
:101A000061F41092900080939100109295001092D2
:101A1000940088BB809371005DCF833069F410928D
:101A2000A00082E08093A1001092A5001092A40073
:101A300089BB809372004ECF81114CCF1092200150
:101A400082E08093210110922501109224018ABB2B
:101A5000809373003FCFCF93DF93EC018EED92E044
:101A600092DD64EB70E08A819B81D9DE81E090E0B9
:101A7000DF91CF910895CF93DF93EC018885882380
:101A800031F06AE070E08A819B81C9DE1886CE0160
:101A9000C8DB81E090E0DF91CF910895CF92DF9293
:101AA000EF92FF92CF93DF93EC01BBDB8C859D859A
:101AB00061E081329E440CF460E088E10E9484037E
:101AC0008A819B8110DB6B017C0120E030E040E0EB
:101AD0005FE3688579858A859B850E94611B9B01F0
:101AE000AC01C701B6010E94F61B18168CF480EEFB
:101AF00092E049DD70E060E08A819B8190DE90E0B9
:101B000080E0DF91CF91FF90EF90DF90CF9008952C
:101B100083EF92E038DD66EE70E08A819B817FDEA4
:101B20000E9437047D876C87EACFCF92DF92EF92D5
:101B3000FF920F931F93CF93DF93EC0172DB6C81C5
:101B40007D81072E000C880B990B0E94F0196B0108
:101B50007C018A819B81C7DA20E030E040E85FE3C6
:101B60000E94611B9B01AC01C701B6010E94F61BDC
:101B7000181624F40E943704798768878A819B812C
:101B8000B2DA20E030E04CE553E40E94F61B181670
:101B90006CF18A819B81A7DA20E030E040EA51ECC9
:101BA0000E94EA1987FD2CC08A819B819CDA20E083
:101BB00030E04CE852E40E94F61B181624F565E06C
:101BC00073E086E395E0B8DD8A819B818CDAECDCFA
:101BD000CE0121DBC1E0D0E0CE01DF91CF911F919A
:101BE0000F91FF90EF90DF90CF900895CEEFDFEF51
:101BF00061E972E086E395E09FDDCE0193DCECCFF6
:101C0000CDEFDFEFF5CF0E94370408851985012E4F
:101C1000000C220B330B601B710B820B930B613892
:101C2000784A8F4F9F4F58F6D0E0C0E0D5CFCF9283
:101C3000DF92EF92FF92CF93DF93EC01F2DA888587
:101C40008823B1F069E173E086E395E075DD4AE051
:101C500060E67AEE80E090E020DC62E872E086E305
:101C600095E00CDC18866FE070E08A819B81D7DDFF
:101C70000E943704C984DA84EB84FC849B01AC01A4
:101C80002C193D094E095F0969017A0165E373E08A
:101C900086E395E051DD4AE0C701B601FEDB62E86C
:101CA00072E086E395E0EADB81E090E031E6C3167E
:101CB0003AEED306E104F10410F490E080E0DF9105
:101CC000CF91FF90EF90DF90CF900895EF92FF9229
:101CD0000F931F93CF93DF93CDB7DEB7A7970FB6C0
:101CE000F894DEBF0FBECDBF8C017B018FEF90E07B
:101CF000F80195838483178216827383628382E15D
:101D000092E09183808380E090E0A6E6B3E4808750
:101D10009187A287B38715861486CB01E4D9F80191
:101D200060877187828793871BA21AA21DA21CA2BB
:101D30001FA21EA28E010F5F1F4F22E044E00E94EF
:101D40005817009721F1FC0101900020E9F7319725
:101D5000AF01481B590BBC01CE01829640DBAE019E
:101D60004E5D5F4F63E070E0C701D8DA8AA19BA1A6
:101D70000E94C21CA7960FB6F894DEBF0FBECDBF5F
:101D8000DF91CF911F910F91FF90EF9008958AA15D
:101D90009BA1009711F00E94C21C1BA21AA21FA2B5
:101DA0001EA21DA21CA2DBCF2F923F924F925F92E8
:101DB0006F927F928F929F92AF92BF92CF92DF925B
:101DC000EF92FF920F931F93CF93DF93CDB7DEB7C0
:101DD0002E970FB6F894DEBF0FBECDBF8C01FC016D
:101DE00011AE10AEEE24EA94F12C9CE3292E92E081
:101DF000392E28E1422E22E0522E3EE1632E32E0BF
:101E0000732E44E2C42E42E0D42E5AE2A52E52E0B4
:101E1000B52EF80180AD91AD26A937A98217930799
:101E20000CF0CDC0848095801A8219821C821B829E
:101E30001E821D8226E0289FF001299FF00D1124AB
:101E4000E00FF11F62AD73AD6115710529F046AD6C
:101E500057ADCE010196C3DAAE014F5F5F4F61E02F
:101E600070E0C4015BDA89819A810E94C21C6DE333
:101E700073E086E395E060DCF80180AD91AD26E08B
:101E8000289FF001299FF00D1124FA96E00FF11F11
:101E9000448155816081718186E395E00E94EA0169
:101EA00062E872E086E395E0E9DAF80180AD91AD91
:101EB0000097B1F484819581FE82ED8218861F829D
:101EC0009C838B83BA82A982CE010196C4DD892BC3
:101ED000D9F3F80180AD91AD019691AF80AF99CF64
:101EE0008130910581F484819581FE82ED8218868E
:101EF0001F829C838B83DA82C982CE0101961DDC0E
:101F0000892BD9F3E6CF8230910591F484819581B4
:101F1000FE82ED8218861F829C838B837A8269827F
:101F20001A861986CE01019600DE892BD9F3D1CF0E
:101F30008330910591F484819581FE82ED8218862B
:101F40001F829C838B835A824982F1E0F987CE01FC
:101F5000019691DD892BD9F3BCCF84309105C1F472
:101F600084819581FE82ED8218861F829C838B83FB
:101F70003A822982F1E0F9870E9437046A877B87D9
:101F80008C879D87CE01019652DE892BD9F3A1CF94
:101F9000059759F464817581CE01019697DECE01D3
:101FA00001967CDD892BD9F394CF6DE473E086E351
:101FB00095E0C2DBF80180AD91ADB4DA8ACF2E9600
:101FC0000FB6F894DEBF0FBECDBFDF91CF911F914A
:101FD0000F91FF90EF90DF90CF90BF90AF909F90C8
:101FE0008F907F906F905F904F903F902F900895CB
:101FF0001F920F920FB60F9211240BB60F922F93D0
:102000003F934F935F936F937F938F939F93AF9380
:10201000BF93EF93FF9386E395E00E946002FF91E8
:10202000EF91BF91AF919F918F917F916F915F9150
:102030004F913F912F910F900BBE0F900FBE0F90BD
:102040001F9018951F920F920FB60F9211240BB686
:102050000F922F938F939F93EF93FF93E0914605F9
:10206000F09147058081E0914C05F0914D0582FD8E
:102070001DC0908180914F058F5F8F732091500517
:10208000821741F0E0914F05F0E0EA5CFA4F958F3E
:1020900080934F05FF91EF919F918F912F910F901A
:1020A0000BBE0F900FBE0F901F9018958081F2CF3E
:1020B0001F920F920FB60F9211242F933F938F937D
:1020C0009F93AF93BF9380918E0490918F04A091C2
:1020D0009004B091910430918D0423E0230F2D37AB
:1020E00058F50196A11DB11D20938D0480938E0497
:1020F00090938F04A0939004B093910480919204E4
:1021000090919304A0919404B09195040196A11D1F
:10211000B11D8093920490939304A0939404B09380
:102120009504BF91AF919F918F913F912F910F9007
:102130000FBE0F901F90189526E8230F0296A11D41
:10214000B11DD2CF1F920F920FB60F9211240BB672
:102150000F922F933F934F935F936F937F938F9340
:102160009F93AF93BF93EF93FF9348E251E064E2F4
:1021700071E090E080E00E944304FF91EF91BF91F5
:10218000AF919F918F917F916F915F914F913F910F
:102190002F910F900BBE0F900FBE0F901F901895B0
:1021A0001F920F920FB60F9211240BB60F922F931E
:1021B0003F934F935F936F937F938F939F93AF93CF
:1021C000BF93EF93FF9348EA50E064EA70E083E046
:1021D00090E00E944304FF91EF91BF91AF919F91D6
:1021E0008F917F916F915F914F913F912F910F90C0
:1021F0000BBE0F900FBE0F901F9018951F920F925D
:102200000FB60F9211240BB60F922F933F934F935B
:102210005F936F937F938F939F93AF93BF93EF934E
:10222000FF9348E950E064E970E082E090E00E94AA
:102230004304FF91EF91BF91AF919F918F917F9157
:102240006F915F914F913F912F910F900BBE0F9027
:102250000FBE0F901F9018951F920F920FB60F92FE
:1022600011240BB60F922F933F934F935F936F936D
:102270007F938F939F93AF93BF93EF93FF9348E820
:1022800050E064E870E081E090E00E944304FF9138
:10229000EF91BF91AF919F918F917F916F915F91DE
:1022A0004F913F912F910F900BBE0F900FBE0F904B
:1022B0001F9018951F920F920FB60F9211240BB614
:1022C0000F922F933F934F935F936F937F938F93CF
:1022D0009F93AF93BF93EF93FF938091B900887F53
:1022E000803609F44DC008F040C0883209F4A9C016
:1022F00028F5803109F49DC0C8F4882309F4FBC097
:10230000883009F496C0FF91EF91BF91AF919F91F2
:102310008F917F916F915F914F913F912F910F908E
:102320000BBE0F900FBE0F901F901895883109F4C7
:1023300088C0803241F78093650414C0803409F46A
:102340009DC040F48033B9F38833E9F68093650487
:1023500085ECB0C0803509F485C0883509F496C095
:10236000883489F60E941E06CECF883909F48CC0C5
:1023700038F5883729F050F4883611F0803719F68F
:1023800083E080932D051092640457C0883809F4C7
:102390007BC0803919F0803809F0B5CF8091640492
:1023A000803208F071C0E091640481E08E0F809368
:1023B00064048091BB00F0E0EC5BFB4F80833DC088
:1023C000803B39F0E0F4803A09F479C0883A09F0AA
:1023D0009ACF84E080932D0510924304109242041A
:1023E000E0912905F0912A05199580914204811107
:1023F0000FC081E0809342041092220409C0803C07
:1024000009F4A6CF883C09F4A3CF883B09F07BCF21
:10241000E091430481E08E0F80934304F0E0EE5D91
:10242000FB4F80818093BB009091430480914204D4
:1024300029C0809188048093BB0085EC8093BC0008
:1024400062CF9091870480918604981758F5E091A7
:10245000870481E08E0F80938704F0E0EA59FB4FF8
:102460008081E9CFE091870481E08E0F809387041B
:102470008091BB00F0E0EA59FB4F80839091870484
:10248000809186049817C8F285E8D8CFE091870438
:1024900081E08E0F809387048091BB00F0E0EA59C1
:1024A000FB4F808380912C0581115CCF81E080936C
:1024B0002B0584EA8093BC0010922D0524CF85EC77
:1024C0008093BC0010922D0580916404803230F41A
:1024D000E0916404F0E0EC5BFB4F108260916404D7
:1024E00070E0E0912705F091280584E494E01995C7
:1024F0001092640408CF1092650434CFE6E3F5E04F
:102500001382128288EE93E0A0E0B0E0848395838A
:10251000A683B78322E632E03183208325EC30E0C6
:102520003587248724EC30E03787268720EC30E09D
:10253000318B208B21EC30E0338B228B22EC30E08E
:10254000358B248B26EC30E0378B268B118E128E48
:10255000138E148EE3EDF5E013821282848395834B
:10256000A683B78384E792E091838083EFEDF5E063
:102570001682178210861186128613861486158697
:1025800016861786108A118A128A138A148A158A67
:102590000895CF93DF93CDB7DEB72E970FB6F8949B
:1025A000DEBF0FBECDBF789484B5826084BD84B594
:1025B000816084BD85B5826085BD85B5816085BD3E
:1025C00080916E00816080936E00109281008091F6
:1025D000810082608093810080918100816080937E
:1025E0008100809180008160809380008091B100A3
:1025F00084608093B1008091B00081608093B000CE
:10260000809191008260809391008091910081601F
:1026100080939100809190008160809390008091E0
:10262000A10082608093A1008091A10081608093CD
:10263000A1008091A00081608093A0008091210181
:10264000826080932101809121018160809321012A
:102650008091200181608093200180917A008460C4
:1026600080937A0080917A00826080937A008091D2
:102670007A00816080937A0080917A0080688093EC
:102680007A001092C1001092210610922206109238
:102690002306109224061092E1051092E205109292
:1026A000E3051092E4050E9437046B017C014B01A5
:1026B0005C0128EB820E2BE0921EA11CB11C0E9433
:1026C00037046C157D058E059F0528F08616970644
:1026D000A806B906A0F768EE73E080E090E00E94DB
:1026E00007040E94C2010E9437046093E1057093C1
:1026F000E2058093E3059093E40567E573E086E3E4
:1027000095E01AD80E9437046B017C014B015C01F3
:102710003AE0830E911CA11CB11C0E9437046C1579
:102720007D058E059F0528F086169706A806B90632
:10273000A0F781E08093F5050E9437046093E105DE
:102740007093E2058093E3059093E40568E673E0F7
:1027500086E395E00E949C0B82E390E00E94261C99
:102760007C0160E089E10E94B103E1EFF2E0E491D5
:10277000D7011496EC931497EBEAF2E0E491F0E0C1
:10278000EE0FFF1FE858FD4F85919491F701968356
:1027900085831786118A108A1686158614861386F5
:1027A00012861186108617825701F2E1AF0EB11C16
:1027B000C70104965B969C938E935A975C961C92E5
:1027C0005C975D961C925D9780912605803308F09A
:1027D000E5C291E0980F909326055E968C9390E069
:1027E000FC01EE0FFF1FE80FF91FEA56FB4F88EBC5
:1027F0009BE09283818384E3D70191968C93919798
:102800008AE092968C93929784E690E095969C93BA
:102810008E93949760E084E30E94B10360E0F70137
:1028200082A10E94B10360E0D70191968C910E9431
:10283000840360E0F70182A10E9484036701F6E24D
:10284000CF0ED11CD70199961C921E92989780E3C7
:1028500092E097969C938E93969787E29A968C93A4
:102860009A9784E19F968C939F9784E0D0968C935F
:10287000D097D1961C920E94C2018FE0F70183A3EA
:1028800000E020E050E040E06AE0C70181960E944D
:10289000C907109231051092300510922F05109241
:1028A0002E0510922D0581E080932C0510922B05AA
:1028B00061E084E10E94840361E085E10E94840379
:1028C0008091B9008E7F8093B9008091B9008D7F8F
:1028D0008093B90088E48093B80085E48093BC00BD
:1028E00088E192E090932A058093290589E192E09E
:1028F0009093280580932705D7019B961C929B9760
:10290000D0968C91D097823018F098E09B969C934B
:10291000F70186A762E370E080E090E00E94070480
:10292000D701D1966C91C6010E94D20668EE73E081
:1029300080E090E00E94070460E3C6010E94350930
:102940000BE416E4C8010197F1F760E3C6010E94A9
:102950003509C8010197F1F760E3C6010E94350906
:1029600083E592E00197F1F760E2C6010E94350924
:10297000F70163A5606240E0C6010E944B0984E054
:10298000D7019C968C9340E06CE0C6010E944B09F5
:1029900040E061E0C6010E944B090BE31FE1C80162
:1029A0000197F1F782E0F70185A740E066E0C601F4
:1029B0000E944B0940E062E0C6010E944B09C80139
:1029C0000197F1F788E0D701D1968C9360E0C601BA
:1029D0000E94D20640E060E0C6010E9460096FE6F6
:1029E00073E0C6010E949C0BF701158E148E53E014
:1029F000752E662463946501F8E0CF0ED11CD701D3
:102A00005C968C905C97811038C05A96ED91FC9141
:102A10005B97138615861486128611861086178298
:102A2000168215821482138252961C9252975A96DD
:102A30000D911C91F8018585882309F4B3C1D80153
:102A40001B961C921B971D961C921D971C961C9200
:102A5000D70152968C91882351F067E0C5010E94FE
:102A6000FB0488248394F701918D9813812CD7015E
:102A70005C968C927A947110C2CFC7010E94730841
:102A80008EE590E0E3D68C01FC01F382E28288E4DB
:102A900092E0918380833696C801C69622E432E0A4
:102AA000CC24CA94D12C31832083D582C48217824E
:102AB000168238968E179F07B1F7D801D9961C92C7
:102AC0001E92D89764E873E0C801CA960E942E0A45
:102AD00069E873E0C801805C9F4F0E942E0A64E998
:102AE00073E0C8018A5B9F4F0E942E0A69E973E078
:102AF000C801845B9F4F0E942E0A67EA73E0C801F9
:102B00008E5A9F4F0E942E0A6AEB73E0C801885AC2
:102B10009F4F0E942E0AF801F582E48286E090E041
:102B200097AB86ABF186E086D386C286158614867F
:102B3000F18AE08AD38AC28A158A148AF18EE08EDD
:102B4000D38EC28E158E148EF1A2E0A2D3A2C2A2A1
:102B500015A214A20E943704D8019996FC92EE9215
:102B600098979B96DC92CE929A979D961C921E9275
:102B70009C97B701CE010196A9D88B819C81F80161
:102B800091AB80AB8D819E8193AB82AB8F81988519
:102B900095AB84ABC80108D984EF882E992493940F
:102BA000A12CB12C0E943704672B682B692B09F4E8
:102BB0006BC10E94370400913205109133052091BA
:102BC000340530913505601771078207930708F4C3
:102BD00066C1009132051091330520913405309182
:102BE00035056B017C01C01AD10AE20AF30A97018C
:102BF00086010A3F11052105310508F44DC1609396
:102C00003205709333058093340590933505809297
:102C1000ED059092EE05A092EF05B092F0051092AE
:102C2000F1051092F2051092F3051092F4058091CF
:102C3000E5059091E605A091E705B091E805809340
:102C4000E9059093EA05A093EB05B093EC050E948B
:102C500037046093E5057093E6058093E70590934C
:102C6000E80586E395E00E943D02843611F40E9457
:102C7000A9090E9437046093E1057093E2058093EF
:102C8000E3059093E4050E9437046B017C016BEC33
:102C900073E086E395E00E949C0B4AE061E070E0FF
:102CA00080E090E00E944D0A62ED73E086E395E0DB
:102CB0000E949C0B4AE0C701B6010E944D0A64EDD8
:102CC00073E086E395E00E949C0B8091E50590916E
:102CD000E605A091E705B091E805A7019601281B3C
:102CE000390B4A0B5B0BCA01B9014AE00E944D0A3D
:102CF00064ED73E086E395E00E949C0B6091E5052E
:102D00007091E6058091E7059091E8050091E9054D
:102D10001091EA052091EB053091EC05601B710BD9
:102D2000820B930B4AE00E944D0A66ED73E086E346
:102D300095E00E949C0B0E9437044AE00E944D0AD5
:102D400088ED93E00E94C30A0E9437046B017C0166
:102D50002B013C0135E0430E511C611C711C0E948B
:102D600037046C157D058E059F0528F0461657061D
:102D700068067906A0F786E395E00E943D02843656
:102D800011F40E94A9090E9437046093E50570932D
:102D9000E6058093E7059093E8057EC08FEFF70185
:102DA000868F29CDC8010E949305811105C0F801C5
:102DB0001386158614864CCE60EFC8010E94650507
:102DC00055245394312C212C99249394C8010E94AA
:102DD0001205482EC8010E941205F1E04F121BC0D7
:102DE0008130D9F5E0E4E91508F029CED8011B9629
:102DF0002C921B97211002C01D966C92F8018381C2
:102E0000882309F41CCE3396D50181918D93AC159E
:102E1000BD05D9F71DCEE32DF0E0481214C0D8014E
:102E20001B968C911B979816B0F4AE0FBF1F13968C
:102E30008C91852191F4412CB8E0B91518F0D80196
:102E40001C969C92292CE00FF11F8381952D909563
:102E5000892383830AC08911EECFF801E30DF11DA8
:102E600083818529838344244394642DC8010E946F
:102E700036059394550C19F4339455245394B7E0C4
:102E8000B31508F0A3CFAECF0E94370462307105AE
:102E90008105910508F08DCE0E94ED0283CE6093EE
:102EA000320570933305809334059093350591CEA8
:102EB000EF920F931F93CF93DF93E80134E047FD28
:102EC00034E1042E000C550B57FF03C0519541957A
:102ED0005109E32E022F242FAE012CD0CE01DF9119
:102EE000CF911F910F91EF900895FC0188279927AA
:102EF000E89421912032E9F3293010F02E30C8F304
:102F00002B3239F02D3231F4689403C00BD0820F8C
:102F1000911D219120532A30C8F31EF4909581957C
:102F20009F4F08957AE0979F902D879F802D910D58
:102F3000112408958F929F92AF92BF92CF92DF9209
:102F4000EF92FF920F931F93CF93DF9300D000D0A7
:102F500000D0CDB7DEB76A01F22EB02E102FFBE302
:102F6000AF2EA01608F41BE31F5F012F27E0AE0170
:102F70004F5F5F4F57D1BC018981982F9970913075
:102F800009F44EC09BE2E1FC04C09E2D9170E0FC70
:102F900049C05E2D5071E82FE87083FF55C084E072
:102FA000911101C083E0EF2DE81B8F1508F0E0E0E0
:102FB000D6018E2F20E25523C9F1992329F0D6019D
:102FC0009C93C60101966C0196012D5F3F4FE2FE76
:102FD00033C08EE4D6018C9391E411969C931197A3
:102FE00012968C93D9018E2F90E281112AC0E20FA4
:102FF000F32FF11D10828EEF9FEF29960FB6F894F4
:10300000DEBF0FBECDBFDF91CF911F910F91FF901B
:10301000EF90DF90CF90BF90AF909F908F900895EA
:103020009DE2B7CF90E2B5CF2D9381508111FCCFB7
:10303000CE0ED11CE0E0C1CF8EE6D6018C9391E696
:10304000CCCF9D938150D1CF482F447082FF3DC09B
:1030500084E0911101C083E08F1510F4EF2DE81B7F
:10306000D6018E2F20E2552309F1992329F0D601AC
:103070009C93C60101966C0196012D5F3F4FE2FEC5
:103080001BC089E4D6018C938EE411968C93119722
:1030900086E412968C93D9018E2F90E2882309F44E
:1030A000A6CF9D938150FACF2D9381508111FCCFF3
:1030B000CE0ED11CE0E0D9CF89E6D6018C938EE606
:1030C00011968C93119786E6E4CF9B0177FF02C09F
:1030D00030E020E0A1E0B0E0911102C0B0E0A0E05B
:1030E000F9013196AE0FBF1F8B2C912CBB2009F438
:1030F00061C05401EFEFAE1ABE0AAA0DBB1DFA164D
:103100001B0619F014F04F2D4A1B511188C0E3FC27
:1031100059C07601A42FB0E2A1114FC0C40ED11C3A
:10312000992309F45BC040E0D6011196F601908323
:103130006D01552309F448C0012F060F9A81582FBD
:10314000507184FF03C0913309F4015010160CF044
:1031500047C0093008F008E0EEE2FE2E5B01A01A3D
:10316000B10885019194819491082F3F320729F489
:10317000D601FC92F60131966F016217730794F144
:10318000021713077CF5DB01A21BB30BAA24A3943F
:10319000B12CAC0EBD1EAA0DBB1D11968C912150F9
:1031A0003109D601119628153905F4F0F60180830E
:1031B0006D01DBCFB12CA12CA0CFF701B1937F0122
:1031C000A150AACF9111B0CFD601942F50E302C0E5
:1031D0005D9391509111FCCFC40ED11C40E0ACCF57
:1031E00001E0BACF80E3DBCF6217730731F4963387
:1031F00088F4953311F4552369F0F6018083FD01BD
:10320000842F90E2811108C0A40FB11D1C9290E0A0
:1032100080E0F3CE81E3F1CF91938150F3CF911110
:1032200083CF8ACF283008F027E03327DA01990FBF
:10323000311D87FD916000966105710539F432609A
:103240002E5F3D9330E32A95E1F708959F3F30F0DC
:1032500080387105610509F03C5F3C5F3D9391301A
:1032600008F08068911DDF93CF931F930F93FF9217
:10327000EF92192F987F9695E92F96959695E90FDD
:10328000FF27E25CFE4F99273327EE24FF24A70196
:10329000E70105900894079428F4360FE71EF81EFE
:1032A000491F511D660F771F881F991F0694A1F7AC
:1032B0000590079428F4E70EF81E491F561FC11DFC
:1032C000770F881F991F661F0694A1F70590079432
:1032D00028F4F80E491F561FC71FD11D880F991FCC
:1032E000661F771F0694A1F70590079420F4490FF5
:1032F000561FC71FD81F990F661F771F881F069478
:10330000A9F784911095177041F0D695C7955795F8
:103310004795F794E7941A95C1F7E4EEF0E06894C6
:103320001590159135916591959105907FE2739572
:10333000E118F10A430B560BC90BD009C0F7E10C99
:10334000F11E431F561FC91FD01D7EF4703311F4A8
:103350008A95E6CFE894015030F0080F0AF4002770
:10336000021708F4202F2395022F7A3328F079E3EF
:103370007D932A95E9F710C07D932A9589F60694E6
:1033800097956795379517951794E118F10A430BB0
:10339000560BC90BD00998F023957E9173957A331B
:1033A00008F070E37C932013B8F77E9170617D93F1
:1033B00030F0839571E37D9370E32A95E1F7112452
:1033C000EF90FF900F911F91CF91DF91992787FD8B
:1033D0009095089540D008F481E00895E89409C0DC
:1033E00097FB3EF490958095709561957F4F8F4F38
:1033F0009F4F9923A9F0F92F96E9BB279395F6954E
:10340000879577956795B795F111F8CFFAF4BB0FCB
:1034100011F460FF1BC06F5F7F4F8F4F9F4F16C02F
:10342000882311F096E911C0772321F09EE8872FB9
:10343000762F05C0662371F096E8862F70E060E075
:103440002AF09A95660F771F881FDAF7880F9695EE
:10345000879597F90895990F0008550FAA0BE0E892
:10346000FEEF16161706E807F907C0F01216130646
:10347000E407F50798F0621B730B840B950B39F486
:103480000A2661F0232B242B252B21F408950A26EC
:1034900009F4A140A6958FEF811D811D08950BD0E1
:1034A00078C069D028F06ED018F0952309F05AC082
:1034B0005FC01124A2C07ED0A0F3959FD1F3950FD9
:1034C00050E0551F629FF001729FBB27F00DB11DA8
:1034D000639FAA27F00DB11DAA1F649F6627B00D38
:1034E000A11D661F829F2227B00DA11D621F739F21
:1034F000B00DA11D621F839FA00D611D221F749F2F
:103500003327A00D611D231F849F600D211D822F75
:10351000762F6A2F11249F5750408AF0E1F08823BC
:103520004AF0EE0FFF1FBB1F661F771F881F9150C9
:103530005040A9F79E3F510570F014C05EC05F3F38
:10354000ECF3983EDCF3869577956795B795F795FC
:10355000E7959F5FC1F7FE2B880F911D9695879584
:1035600097F9089597F99F6780E870E060E0089503
:103570009FEF80EC089500240A941616170618068B
:103580000906089500240A94121613061406050667
:103590000895092E0394000C11F4882352F0BB0FF8
:1035A00040F4BF2B11F460FF04C06F5F7F4F8F4F5B
:1035B0009F4F089557FD9058440F551F59F05F3F96
:1035C00071F04795880F97FB991F61F09F3F79F045
:1035D00087950895121613061406551FF2CF4695C7
:1035E000F1DF08C0161617061806991FF1CF869549
:1035F0007105610508940895E894BB27662777272D
:10360000CB0197F90895A1E21A2EAA1BBB1BFD015D
:103610000DC0AA1FBB1FEE1FFF1FA217B307E407B1
:10362000F50720F0A21BB30BE40BF50B661F771F09
:10363000881F991F1A9469F76095709580959095E9
:103640009B01AC01BD01CF010895052E97FB16F437
:1036500000940FD057FD05D0D6DF07FC02D046F40A
:1036600008C050954095309521953F4F4F4F5F4F83
:10367000089590958095709561957F4F8F4F9F4FDE
:1036800008950FD0A59F900DB49F900DA49F800D1D
:10369000911D11240895B7FFF4CFF3DF821B930B24
:1036A0000895A29FB001B39FC001A39F700D811D1B
:1036B0001124911DB29F700D811D1124911D08953B
:1036C0005058BB27AA270ED064CF55DF30F05ADF01
:1036D00020F031F49F3F11F41EF44ACF0EF4E09530
:1036E000E7FB40CFE92F66DF80F3BA176207730765
:1036F0008407950718F071F49EF57ECF0EF4E095DF
:103700000B2EBA2FA02D0B01B90190010C01CA019B
:10371000A0011124FF27591B99F0593F50F4503E46
:1037200068F11A16F040A22F232F342F4427585F38
:10373000F3CF469537952795A795F0405395C9F750
:103740007EF41F16BA0B620B730B840BBAF0915008
:10375000A1F0FF0FBB1F661F771F881FC2F70EC0A7
:10376000BA0F621F731F841F48F48795779567957A
:10377000B795F7959E3F08F0B3CF9395880F08F063
:103780009927EE0F97958795089504D06894B11105
:1037900034CF089517DF88F09F5790F0B92F9927FD
:1037A000B751A0F0D1F0660F771F881F991F1AF04C
:1037B000BA95C9F712C0B13081F01EDFB1E00895AB
:1037C0001BCF672F782F8827B85F39F0B93FCCF32C
:1037D000869577956795B395D9F73EF49095809542
:1037E000709561957F4F8F4F9F4F089534DE08F499
:1037F0008FEF089530DE880B990B0895991B79E0BF
:1038000004C0991F961708F0961B881F7A95C9F770
:1038100080950895AA1BBB1B51E107C0AA1FBB1FBF
:10382000A617B70710F0A61BB70B881F991F5A954C
:10383000A9F780959095BC01CD010895EE0FFF1F6B
:10384000881F8BBF0790F691E02D19940F931F935B
:10385000CF93DF938230910510F482E090E0E09105
:103860002706F091280630E020E0B0E0A0E0309795
:1038700099F42115310509F44AC0281B390B24306D
:103880003105D8F58A819B816115710589F1FB01AC
:1038900093838283FE0111C0408151810281138193
:1038A00048175907E0F04817590799F4109761F045
:1038B00012960C93129713961C933296CF01DF91B8
:1038C000CF911F910F91089500932706109328061A
:1038D000F4CF2115310551F04217530738F0A901F3
:1038E000DB019A01BD01DF01F801C1CFEF01F9CF82
:1038F0009093280680932706CDCFFE01E20FF31F99
:10390000819391932250310939832883D7CF209115
:10391000250630912606232B41F420910202309196
:103920000302309326062093250620910002309151
:1039300001022115310541F42DB73EB74091040233
:1039400050910502241B350BE0912506F0912606C7
:10395000E217F307A0F42E1B3F0B2817390778F066
:10396000AC014E5F5F4F2417350748F04E0F5F1FC5
:103970005093260640932506819391939FCFF0E0C4
:10398000E0E09CCFCF93DF930097E9F0FC01329702
:1039900013821282A0912706B0912806ED0130E033
:1039A00020E01097A1F420813181820F931F209194
:1039B0002506309126062817390709F061C0F093D3
:1039C0002606E0932506DF91CF910895EA01CE17F0
:1039D000DF07E8F54A815B819E0141155105B1F78A
:1039E000E901FB83EA8349915991C40FD51FEC1774
:1039F000FD0761F4808191810296840F951FE90192
:103A000099838883828193819B838A83F0E0E0E0BD
:103A100012968D919C9113970097B9F52D913C9139
:103A20001197CD010296820F931F209125063091A8
:103A300026062817390739F6309751F510922806CF
:103A400010922706B0932606A0932506BCCFD383F9
:103A5000C28340815181840F951FC817D90761F433
:103A60004E5F5F4F88819981480F591F5183408372
:103A70008A819B81938382832115310509F0B0CF20
:103A8000F0932806E09327069ECFFD01DC01C0CF0E
:103A900013821282D7CF4F925F926F927F928F9252
:103AA0009F92AF92BF92CF92DF92EF92FF920F93CD
:103AB0001F93CF93DF938C01009791F4CB01DF919B
:103AC000CF911F910F91FF90EF90DF90CF90BF901B
:103AD000AF909F908F907F906F905F904F90B6CEF9
:103AE000FC01E60FF71F9C0122503109E217F30792
:103AF00008F4AAC0D901CD91DC911197C617D70758
:103B000018F1C530D10570F0CE01049786179707DC
:103B100048F0C61BD70B2297C193D1936D937C932A
:103B2000CF0130DFC801DF91CF911F910F91FF903E
:103B3000EF90DF90CF90BF90AF909F908F907F904D
:103B40006F905F904F9008955B01AC1ABD0A4C01D5
:103B50008C0E9D1EA0912706B0912806512C412C59
:103B6000F12CE12C109731F58091250690912606D5
:103B70008815990509F05CC04616570608F058C02C
:103B80008091000290910102009741F48DB79EB799
:103B90004091040250910502841B950BE817F90728
:103BA00008F052C0F0932606E0932506F9017183D0
:103BB0006083B8CF8D919C91119712966C9012975B
:103BC00013967C901397A815B90559F56C0142E03E
:103BD000C40ED11CCA14DB0420F1AC014A195B09E4
:103BE000DA011296159780F06282738251834083C6
:103BF000D9016D937C93E114F10471F0D701139610
:103C0000FC93EE9312978ECF22968C0F9D1FF90195
:103C100091838083F301EFCFF0932806E09327068A
:103C200081CF4816590608F42C017D01D3019ACFA3
:103C3000CB010CDE7C01009739F0AE01B80107D052
:103C4000C801A0DE87016ECF10E000E06BCFFB0162
:103C5000DC0102C001900D9241505040D8F7089508
:103C6000FB01DC0101900D920020E1F70895F8942A
:023C7000FFCF84
:103C720000002906800000004000140054000000EB
:103C820000004E0D000000003B0D00000000950DED
:103C9200000000009D0B000000002B0D0000000042
:103CA200A409EA013607350700000000170E0000DC
:103CB2000000360700000000D40E6F0817023F060E
:103CC2005B4F666D7D077F6F777C395E797100008F
:103CD20000008202EA011A02CE024B0229023D02D0
:103CE20000000000A40678063607170271065E0679
:103CF2004F060D0A006E616E00696E66006F766691
:103D0200004572726F723A200045786974206279B8
:103D1200206C617267652074656D703A2000457889
:103D22006974206279206A756D70652074656D70A2
:103D32002E2050726576696F75732074656D7020E0
:103D42003A20007331526F746174653A2000310079
:103D5200636C6F73654E6F646553656C65637469FC
:103D62006F6E006F70656E4E6F646553656C656350
:103D720074696F6E004E6F726D616C206578697444
:103D82002E2054656D703A2000746563686E6F6C06
:103D92006F676963616C427265616B54696D656FCF
:103DA20075743A200064656C74613A200043757240
:103DB20072656E742073746174653A20006465667E
:103DC20061756C743A2000564D4450565F317C3117
:103DD2005F564D4450560A00564D4450525F0041C2
:103DE200726475696E6F20693263203230783420D4
:103DF2004C434400696E6974005072656865617471
:103E0200696E670048656164004865616453656C6A
:103E1200656374696F6E00546563686E6F6C6F677B
:103E22006963616C427265616B00416C636F686FBC
:103E32006C53656C656374696F6E00564D445045F2
:103E42005F003A323A007C005F564D445045000014
:00000001FF
