:100000008FC10000BEC10000BCC10000BAC1000029
:10001000B8C10000B6C10000B4C10000B2C1000008
:10002000B0C10000AEC10000ACC10000AAC1000018
:10003000A8C10000A6C10000A4C10000A2C1000028
:10004000A0C100000C9484129CC100009AC1000061
:1000500098C1000096C1000094C100000C948C105F
:1000600090C100000C9456100C942C108AC1000012
:1000700088C1000086C1000084C1000082C1000068
:100080000C9456127EC100007CC100007AC10000B1
:1000900078C1000076C1000074C100000C94D61035
:1000A00070C100006EC100000C9428126AC10000EB
:1000B00068C1000066C1000064C100000C94FA1120
:1000C00060C100005EC100005CC100005AC10000B8
:1000D00058C1000056C1000054C1000052C10000C8
:1000E00050C1000000407A10F35A00A0724E180967
:1000F0000010A5D4E80000E87648170000E40B548F
:10010000020000CA9A3B000000E1F505000080965D
:100110009800000040420F000000A086010000008F
:10012000102700000000E803000000006400000049
:1001300000000A00000000000100000000002C7612
:10014000D888DC674F0823DFC1DFAE59E1B1B7962D
:10015000E5E3E453C63AE651997696E8E6C284268A
:10016000EB898C9B62ED407C6FFCEFBC9C9F40F266
:10017000BAA56FA5F490055A2AF75C936B6CF967E2
:100180006DC11BFCE0E40D47FEF520E6B500D0EDA7
:10019000902E0300943577050080841E080000200F
:1001A0004E0A000000C80C333333330F986E1283AD
:1001B0001141EF8D2114893BE65516CFFEE6DB1881
:1001C000D1844B381BF77C1D901DA4BBE424203246
:1001D00084725E228100C9F124ECA1E53D27005E16
:1001E000BCE2613FDD83C29C7E20A3FD1F41009DD8
:1001F00023BE46DB65F88C11AF32CA57E9740000A4
:100200002100240027002A002D00300033000101C6
:100210000000040107010A01000022002500280057
:100220002B002E00310034000201000005010801FE
:100230000B0100000A0B02090C0D0E080703040154
:1002400000000000000000000000000000000000AE
:10025000000000000000000000000000000012117B
:10026000100000000000000000000000000000007E
:100270000000000000000000000020002300260015
:1002800029002C002F0032000001000003010601AC
:10029000090105050505070508080808020202020C
:1002A0000A0A080804040404010101010101010112
:1002B0000303030303030303040707070C0C0C0CDD
:1002C0000C0C0C0C020202020606060606060606C6
:1002D0000B0B0B0B0B0B0B0B010210202008081053
:1002E00020401020408002010201080402010102A6
:1002F000040810204080804020100804020180047F
:1003000002018040201008040201080402010102D9
:100310000408102040800102040810204080B2121E
:1003200011241FBECFEFD1E2DEBFCDBF00E00CBF76
:1003300013E0A0E0B2E0E2EEFCE300E00BBF02C09D
:1003400007900D92A03EB107D9F726E0A0EEB3E0EA
:1003500001C01D92A932B207E1F711E0C0E9D1E076
:1003600000E006C021970109802FFE010E94561C63
:10037000CF38D10780E00807A9F70E94FD120C943E
:100380006F1E3ECEE6E3F5E0A089B18982E08C9352
:10039000A485B5851C92A685B78580E18C93108EC7
:1003A000A489B58986E08C93A289B3898C918061F8
:1003B0008C93A289B3898C9188608C93A289B3892C
:1003C0008C9180688C930288F389E02D80818F7DE9
:1003D00080830895AF92BF92CF92DF92EF92FF9207
:1003E0000F931F93CF93DF936C017B018B01040F5D
:1003F000151FEB015E01AE18BF08C017D10759F0F9
:100400006991D601ED91FC910190F081E02DC6013A
:100410001995892B79F7C501DF91CF911F910F9124
:10042000FF90EF90DF90CF90BF90AF900895089528
:1004300008950895FC01538D448D252F30E0842FBD
:1004400090E0821B930B541710F0CF9608950197FC
:100450000895FC01918D828D981761F0A28DAE0FE9
:10046000BF2FB11D5D968C91928D9F5F9F73928F70
:1004700090E008958FEF9FEF0895FC01918D828D9C
:10048000981731F0828DE80FF11D858D90E0089569
:100490008FEF9FEF0895FC01918D228D892F90E0C1
:1004A000805C9F4F821B91098F739927089586E383
:1004B00095E0F1DF21E0892B09F420E0822F0895F7
:1004C000FC01A48DA80FB92FB11DA35ABF4F2C91C9
:1004D000848D90E001968F739927848FA689B789C0
:1004E0002C93A089B1898C91837080648C93938DB7
:1004F000848D981306C00288F389E02D80818F7D5A
:1005000080830895EF92FF920F931F93CF93DF9311
:10051000EC0181E0888F9B8D8C8D98131AC0E8893F
:10052000F989808185FF15C09FB7F894EE89FF890E
:100530006083E889F98980818370806480839FBFAC
:1005400081E090E0DF91CF911F910F91FF90EF90AC
:100550000895F62E0B8D10E00F5F1F4F0F731127BC
:10056000E02E8C8D8E110BC00FB607FCFACFE889F8
:10057000F989808185FFF5CFCE01A2DFF2CFEB8D27
:10058000EC0FFD2FF11DE35AFF4FF0829FB7F89457
:100590000B8FEA89FB8980818062D0CFCF93DF9374
:1005A000EC01888D8823B1F0AA89BB89E889F98993
:1005B0008C9185FD03C0808186FD0CC00FB607FCC1
:1005C000F7CF8C9185FFF2CF808185FFEDCFCE01F3
:1005D00077DFEACFDF91CF91089580E090E0892B1B
:1005E00021F065DF81110E94000080E090E0892BFE
:1005F00049F080E090E0892B29F00E9400008111F1
:100600000E94000080E090E0892B49F080E090E0BB
:10061000892B29F00E94000081110E94000080E0D7
:1006200090E0892B49F080E090E0892B29F00E942E
:10063000000081110C94000008958150823108F06F
:100640005AC0E82FF0E08827E75DFC4F8F4F0C94ED
:10065000561C49034D033B03410345037B035003F1
:1006600056035A036003640368036E0372037B033B
:1006700076037C038003809180008F7780938000D5
:100680000895809180008F7DF9CF80918000877FD1
:10069000F5CF84B58F7784BD089584B58F7DFBCF6A
:1006A0008091B0008F778093B00008958091B00062
:1006B0008F7DF9CF809190008F778093900008957F
:1006C000809190008F7DF9CF80919000877FF5CF4A
:1006D0008091A0008F778093A00008958091A00062
:1006E0008F7DF9CF8091A000877FF5CF8091200189
:1006F0008F77809320010895809120018F7DF9CF1D
:1007000080912001877FF5CF1F93CF93DF93282F10
:1007100030E0F901EE5CFD4F8491F901E852FD4FA4
:10072000D491F901EE56FD4FC491CC23A1F0162FC0
:10073000811183DFEC2FF0E0EE0FFF1FE85EFD4F2D
:10074000A591B4918FB7F894EC91111108C0D09590
:10075000DE23DC938FBFDF91CF911F910895DE2BB5
:10076000F8CFCF93DF9390E0FC01E852FD4F249146
:100770008E569D4FFC0184918823D1F090E0880F24
:10078000991FFC01E250FE4FA591B491FC01E85E77
:10079000FD4FC591D49161110EC09FB7F8948C9113
:1007A000E22FE0958E238C932881E223E8839FBF7C
:1007B000DF91CF9108958FB7F894EC91E22BEC93F1
:1007C0008FBFF6CF3FB7F894809192049091930435
:1007D000A0919404B091950426B5A89B05C02F3F25
:1007E00019F00196A11DB11D3FBFBA2FA92F982F57
:1007F0008827BC01CD01620F711D811D911D42E052
:10080000660F771F881F991F4A95D1F708958F9219
:100810009F92AF92BF92CF92DF92EF92FF924B01E5
:100820005C01D0DF6B017C01CDDF6C197D098E0985
:100830009F09683E734081059105B0F321E0821A5B
:100840009108A108B10888EEC80E83E0D81EE11C0B
:10085000F11C81149104A104B10431F7FF90EF90D1
:10086000DF90CF90BF90AF909F908F9008952FB75B
:10087000F89460918E0470918F048091900490910F
:1008800091042FBF0895089585ED8093BC00809159
:10089000BC0084FDFCCF10922D0508952091240406
:1008A000260F3327331F21323105ECF420912D051B
:1008B000FC0190E080E0243069F082E00895A0918E
:1008C00024042191AC014C5F5B4FA40FB52FB11DE7
:1008D0002C930196861798F380912404680F6093F7
:1008E000240480E0089581E00895E091310580912D
:1008F0003005E81730F4F0E0EC51FC4F808190E0D7
:1009000008958FEF9FEF0895909131058091300504
:100910002FEF3FEF981748F4E92FF0E0EC51FC4F30
:10092000208130E09F5F90933105C9010895809147
:10093000300590913105891B990B0895CF92DF9274
:10094000EF92FF920F931F93CF93DF937C01CB0124
:100950008A0120916B04222389F0EB016B01C40E04
:10096000D51ECC15DD0561F06991D701ED91FC91A3
:100970000190F081E02DC7011995F3CF642F8EDF30
:10098000C801DF91CF911F910F91FF90EF90DF9001
:10099000CF900895CF93DF931F92CDB7DEB76983D1
:1009A00020916B042223F9F020912E05203258F07B
:1009B00021E030E0FC013383228390E080E00F905F
:1009C000DF91CF91089580912F05E82FF0E0E45951
:1009D000FB4F998190838F5F80932F0580932E0525
:1009E00081E090E0ECCF61E0CE01019657DFF8CFD7
:1009F000CF93FC01C48121E020936B04C0938C044D
:100A000010922F0510922E058385682B83ED95E0BB
:100A1000C1DF90912E05913208F03FC080912D05E5
:100A20008111FCCF82E080932D0581E080932C051D
:100A30008FEF80936A041092690490936804ACE687
:100A4000B4E0E8E4F4E080E098132FC0109247048B
:100A500080914704CC0FC82BC093470480912B058D
:100A6000813039F510922B05809147048093BB00AB
:100A70008091BC0083FDF8CF85EC8093BC00809111
:100A80002D058230E1F380916A048F3F31F080912F
:100A90006A04803211F080916A0410922F0510923E
:100AA0002E0510926B04CF9108952D9121938F5FA5
:100AB000CBCF85EEE2CF90E080E00895DC0180E0CE
:100AC000615090F09D919827E92FEF70F0E0E2528D
:100AD000FE4F2491E92FE295EF70F0E0E251FE4FD6
:100AE000E491822F8E27ECCF0895DC012C91119692
:100AF000ED91FC91F8948181822B81839281322F38
:100B000030959323928387E090E00197F1F78181FC
:100B10008323818383E290E00197F1F790817894B9
:100B2000EFECF0E03197F1F7922381E009F480E0F7
:100B30000895FC0190810180F281E02D292F2095FC
:100B400060FF14C0F8948281822382838181892B83
:100B50008183A3E2B0E01197F1F78281982B928311
:100B6000789487ED90E00197F1F70895F8948281E9
:100B7000822382838181892B8183AFEFB0E011973B
:100B8000F1F78281982B928378948FE090E0EBCFFD
:100B9000EF92FF920F931F93CF93DF93EC01E62E1A
:100BA00008E010E0FF24F39461E08E2D8F2109F41A
:100BB00060E0CE01BEDFFF0C01501109A9F7F894E7
:100BC000E981FA8191818881809589238183E981F6
:100BD000FA81928188818095892382837894DF913C
:100BE000CF911F910F91FF90EF900895EF92FF9298
:100BF0000F931F93CF93DF938C017B0165E5C8DFD3
:100C0000E70188E0E80EF11C6991C801C1DFCE154B
:100C1000DF05D1F7DF91CF911F910F91FF90EF90FA
:100C20000895FC0190810180F281E02DF89481818A
:100C3000292F20958223818378943DE743E050E07B
:100C4000315029F1DA011197F1F780818923C1F33D
:100C5000F8948281822382838181892B8183789495
:100C6000ABE7B7E01197F1F7F89481818223818394
:100C7000A3E1B1E01197F1F78081982381E009F0B9
:100C800080E07894E3E6F6E03197F1F7089580E0AC
:100C900008958F929F92AF92BF92CF92DF92EF9280
:100CA000FF920F931F93CF93DF93EC01F62EE72E65
:100CB000942E88859985B5DFBE018885998596DF54
:100CC0006EEB8885998564DF8F2C0F2D1E2DA884EF
:100CD000B98488E0C82ED12CF12CEE24E394C50110
:100CE00004DF8111FE28EE0C81E0C81AD108B9F7A3
:100CF000F801F1928F018E2F8819891540F38885AC
:100D00009985DF91CF911F910F91FF90EF90DF9028
:100D1000CF90BF90AF909F908F9083CFFC01838145
:100D200094818230910538F0880F991F880F991FA0
:100D300005970197F1F70895EF92FF920F931F9394
:100D4000CF93DF93EC01062F18E061E0888109DD85
:100D5000CE01E4DFE02EF12C60E000FF61E089814C
:100D600000DDCE01DBDF60E08881FBDCCE01D6DF79
:100D7000F594E7940E2D115041F761E08881F1DC84
:100D800060E08981EEDCCE01C9DF60E08881E9DCCA
:100D9000CE01C4DF298130E0F901EE5CFD4F849182
:100DA000F901E852FD4F0491F901EE56FD4F1491FF
:100DB000112321F1811141DCE12FF0E0EE0FFF1F43
:100DC000E858FD4FA591B491EC910E2311E009F480
:100DD00010E0111103C061E08981C3DCCE019EDF08
:100DE00061E08881BEDCCE0199DF812F8170DF91C7
:100DF000CF911F910F91FF90EF90089510E0EBCFEE
:100E0000CF93DF93EC0161E08981ABDCCE0186DF1B
:100E100060E08881A6DCCE0181DF60E08981A1DC11
:100E2000CE01DF91CF917ACFCF93DF93EC0161E0D8
:100E3000898197DCCE01DF91CF9170CF6F927F9245
:100E40008F929F92AF92BF92CF92DF92EF92FF92DA
:100E50000F931F93CF93DF9300D01F92CDB7DEB7D0
:100E60007C01FA0130E067FF02C0619531E0309704
:100E700009F041C001113FC019821A821B828FE321
:100E80008C83C701D1DF60E4C70156DFC701B8DF3B
:100E9000C701CADF60ECC7014FDF8E010F5F1F4F34
:100EA0006E01B5E0CB0ED11CF80161918F01C70135
:100EB00043DF0C151D05C1F7C701A2DFC701B4DF71
:100EC000D70112966C916F706058C70135DFC7016A
:100ED0000F900F900F900F90DF91CF911F910F9176
:100EE000FF90EF90DF90CF90BF90AF909F908F904A
:100EF0007F906F9085CFCE0101964C013E0193E02B
:100F0000691A71086401A62E660FBB0810E4CF01B0
:100F1000B5010E94421CAC01982F81110CC0309782
:100F200051F4011108C0F6011382332379F0F60160
:100F3000138330E00BC0425B5D4FDA018C91D60128
:100F400013968C93911102C0EF2B79F3FB0181E092
:100F5000C81AD1086C147D04D1F6222309F491CF6C
:100F600041E050E04C0F5D1F4C5F5F4FD4019D91FD
:100F70004D01FD013197822F8078892B8083220FCC
:100F80004A175B0799F77DCFAF92BF92CF92DF925E
:100F9000EF92FF920F931F93CF93DF936B017A0130
:100FA000EC01C052DC4F28813CE0389F8001399F22
:100FB000100D1124A0902605B12C27FF1FC0FB01A6
:100FC0001182108288818F5F888388819801280F21
:100FD000311D87FD3A95F6012A153B051CF48881E1
:100FE0008C30BCF180819181049680349C4908F456
:100FF00071C0F6018081918104966EC0888198014C
:10100000280F311D87FD3A952A153B05DCF68881AE
:10101000A801480F511D87FD5A95FA01EE0FFF1FD9
:10102000E40FF51FEA56FB4F808186FFCBCF888106
:10103000F801E80FF11D87FDFA95CF01EE0FFF1FB4
:10104000E80FF91FEA56FB4F808160E08F735CDB8D
:10105000B9CF808191812881A801420F511D27FDC0
:101060005A959A01FA01EE0FFF1FE20FF31FEA569D
:10107000FB4F21813281820F931FF701918380837F
:1010800088819801280F311D87FD3A95F901EE0FEF
:10109000FF1FE20FF31FEA56FB4F808186FF21C03E
:1010A0008881080F111D87FD1A95F801EE0FFF1FAB
:1010B000E00FF11FEA56FB4F808161E08F73DF91F3
:1010C000CF911F910F91FF90EF90DF90CF90BF9045
:1010D000AF901ACB80E49CE9F701918380838FEF76
:1010E0008883DF91CF911F910F91FF90EF90DF9058
:1010F000CF90BF90AF900895FC0111AE10AE08954F
:1011000061E088E101DB60E088E1FECA0F931F9394
:10111000CF938C01C62F6CDC6C2F6460C80168DC37
:101120006C2F6B7FC80164DC83EC90E00197F1F7D2
:10113000CF911F910F9108950F931F93CF93DF933A
:101140008C01D62FC42F607F642BE0DF80E1D89F15
:10115000B00111246C2BC801DF91CF911F910F9129
:10116000D5CFCF93DF9300D000D01F921F92CDB781
:10117000DEB728E0E6E0F2E0DE01119601900D9284
:101180002A95E1F7FC012085241710F44FEF420F58
:1011900050E0440F551F21E030E02C0F3D1F420F5F
:1011A000531FFA012081620F606840E028960FB655
:1011B000F894DEBF0FBECDBFDF91CF91BDCF0F93AF
:1011C0001F93CF93DF938A01EC01A696462F60E030
:1011D000CE01C7DFF8014481558160817181CE0164
:1011E000DF91CF911F910F91F5C841E0A5DF81E01C
:1011F00090E008958F929F92AF92BF92CF92DF922C
:10120000EF92FF920F93CF93DF9300D000D000D0E6
:10121000CDB7DEB77C016C0182E1C80ED11CF701AD
:10122000828D938DFEDCB601F701828D938DDEDC1D
:101230006EE4F701828D938DABDC60E0F701828D67
:10124000938DA6DC64E6F701828D938DA1DC6FE5BA
:10125000F701828D938D9CDCF701828D938DE1DC0B
:10126000F701828D938DDDDC6CECF701828D938D1F
:101270008FDC64E4F701828D938D8ADCF701828D27
:10128000938D33DC8130D1F7F701858D80FF64C009
:1012900049E0BE016F5F7F4FC601FBDC68E0CE0115
:1012A00001960CDC998589135EC069817A81072ECD
:1012B000000C880B990B0E94281A20E030E040E8CF
:1012C0005DE30E94871A4B015C0120E030E04CE5B1
:1012D00052EC0E94221A87FF06C0812C912C9EEFAF
:1012E000A92E92ECB92EF70180829182A282B3825C
:1012F0006701F1E2CF0ED11C20E030E048EC52E46F
:10130000C501B4010E94871A0E94FD1B9B01AB011D
:1013100077FF04C044275527461B570B66EF37FF5E
:101320006AE001E020EEC60189DDF701608171818C
:101330008281938129960FB6F894DEBF0FBECDBF90
:10134000DF91CF910F91FF90EF90DF90CF90BF9002
:10135000AF909F908F90089542E0BE016F5F7F4FE6
:10136000C60197DCA2CF812C912CA12C83ECB82E46
:10137000BACF0F931F93CF93DF93EC0178DA0E81EE
:101380001F81012E000C220B330B601B710B820B93
:10139000930B613177428105910550F068DA7F83C4
:1013A0006E838A819B8126DF0E94FD1B7D836C8377
:1013B000DF91CF911F910F910895EF92FF920F93BC
:1013C0001F93CF93DF9300D01F92CDB7DEB786E394
:1013D00095E03FD886E395E03CD88E010F5F1F4F24
:1013E00078018A3339F0F80181938F0186E395E023
:1013F00030D8F7CFC7010E94AD17182F86E395E0CC
:1014000028D88053990B8230910518F4682F812FCA
:101410007BD986E395E01DD88A3011F08D30C9F76D
:1014200086E395E02AD88A3019F486E395E011D84E
:101430000F900F900F900F90DF91CF911F910F9110
:10144000FF90EF900895EF92FF920F931F93CF9329
:10145000DF93EC017B018A0188819981009729F053
:101460002A813B812417350788F4B8016F5F7F4FCD
:101470000E94831D009791F0998388831B830A83C0
:101480002C813D81232B11F4FC0110821D830C83E0
:10149000B701888199810E94681E0CC0888199815A
:1014A000009711F00E94FA1C198218821D821C827A
:1014B0001B821A82CE01DF91CF911F910F91FF9075
:1014C000EF900895FC01118210821382128215821E
:1014D0001482FB0101900020E9F73197AF01461B10
:1014E000570BB1CFFB0101900020E9F73197AF0115
:1014F000461B570BDC01ED91FC910280F381E02D3E
:1015000019948F929F92AF92BF920F931F93CF9394
:10151000DF93CDB7DEB7A1970FB6F894DEBF0FBE4D
:10152000CDBF19A2423008F44AE08E010F5D1F4F73
:10153000842E912CB12CA12CA50194010E943B1B5F
:10154000E62FB901CA01EA30FCF4E05DD801EE9360
:101550008D01232B242B252B79F790E080E0109729
:1015600021F0BD0186E395E0BDDFA1960FB6F894AA
:10157000DEBF0FBECDBFDF91CF911F910F91BF9006
:10158000AF909F908F900895E95CE0CFCF92DF926B
:10159000EF92FF92CF93DF936C01990FEE08FF0853
:1015A000F7FE1FC06DE286E395E00E948202EC0127
:1015B00066277727CB016C197D098E099F094AE0C0
:1015C000A0DFC80FD91F62E872E086E395E08ADFEA
:1015D0008C0F9D1FDF91CF91FF90EF90DF90CF9008
:1015E00008954AE0C701B6018CDFEC01ECCFCF9340
:1015F000DF93BC0186E395E075DFEC0162E872E001
:1016000086E395E06FDF8C0F9D1FDF91CF910895EA
:101610004F925F926F927F928F929F92AF92BF9202
:10162000CF92DF92EF92FF926B017C01AC019B01A4
:101630000E94321C65E872E081111AC04601570110
:10164000E894B7F82FEF3FEF4FE75FE7C501B4012C
:101650000E94321C811124C02FEF3FEF4FE75FE75C
:10166000C501B4010E94221A1816D4F469E872E088
:1016700086E395E037DF7C0162E872E086E395E07F
:1016800031DF8E0D9F1DFF90EF90DF90CF90BF90C8
:10169000AF909F908F907F906F905F904F90089544
:1016A0002FEF3FEF4FE75FE4C701B6010E942E1C0A
:1016B00018161CF46DE872E0DBCF2FEF3FEF4FE719
:1016C0005FECC701B6010E94221A87FDF3CF20E02C
:1016D00030E0A901C701B6010E94221AB12CA12C49
:1016E00087FF0AC06DE286E395E00E9482025C01FA
:1016F000F7FAF094F7F8F0942AE037ED43EA5BE369
:10170000C701B6010E94991B2B013C010E94021CDB
:101710006B017C010E94261A9B01AC01C301B2013E
:101720000E94981B2B013C014AE0C701B601E9DE8B
:101730007C01EA0CFB1C6EE286E395E00E948202CB
:10174000E80EF91E20E030E040E251E4C301B201AE
:101750000E94871A2B013C010E94021C4B01B12CF4
:10176000A12C4AE0C501B401CCDEE80EF91EC5018A
:10177000B4010E94261A9B01AC01C301B2010E9470
:10178000981B20E030E040E251E40E94871A0E945A
:10179000021C90E080E04AE0B4DEE80EF91E6CCF57
:1017A000A1CECF92DF92EF92FF92CF93DF93EC0125
:1017B000E0DD8A819B811EDD20E030E04CE553E4D2
:1017C0000E942E1C181624F18A819B8113DD20E0D3
:1017D00030E040EA51EC0E94221A87FD2AC08A813B
:1017E0009B8108DD20E030E04CE552E40E942E1C95
:1017F000181614F569E972E086E395E0D1DF8A8175
:101800009B81F8DC05DFCE017BDCC1E0D0E009C0C4
:10181000CEEFDFEF61E972E086E395E0C1DFCE0154
:10182000B5DECE01DF91CF91FF90EF90DF90CF90AA
:101830000895CDEFDFEFEECF8A819B81DBDC6B017A
:101840007C016C817D81072E000C880B990B0E9416
:10185000281A9B01AC01C701B6010E94981B20E029
:1018600030E040EA51E40E942E1C18164CF46EEA57
:1018700072E086E395E094DF8C819D8187DEC3CFA3
:10188000D0E0C0E0CECF4F925F926F927F92BF9236
:10189000CF92DF92EF92FF920F931F93CF93DF933C
:1018A0008C017B01DC015E968C91803308F055C081
:1018B00061E08EE10E94B103F801868D282F30E0AF
:1018C000F901EE0FFF1FE20FF31FEA56FB4F908165
:1018D000907C9E619083D8015F961C925F97909652
:1018E0001C922CE0622F0E94361C829FB0011124B2
:1018F00030E020E0AB01420F531FFA01EE0FFF1F53
:10190000E40FF51FEA56FB4F908196FD17C02F5F3D
:101910003F4F2C30310571F7813009F0A4C010928F
:10192000800082E0809381001092850010928400F4
:10193000B19A80916F00826080936F00D8015E96AB
:10194000EC918E2F90E0FC01EE0FFF1FE80FF91FC6
:10195000EA56FB4F808180648083F801B68CFFE2F9
:10196000FB1508F456C0D80190968C91909758E5D5
:10197000C52E52E0D52EC81AD10887FDD394CC0CC1
:10198000DD1CCC0CDD1C5F968C91C8E8D0E0C81B38
:10199000D10987FDD395CC0FDD1FCC0FDD1F2E01A4
:1019A0000D2E000C66087708D701E5EBEE16F10462
:1019B00014F0A4EBB0E096010D2C000C440B550B79
:1019C00024193509460957090E94831B24EB30E08E
:1019D00040E050E00E945D1B420E531E641E751EC7
:1019E0004C165D062CF0E6014C145D040CF4E2018B
:1019F0002297CC0FDD1F2FB7F8948B2D90E0FC01C0
:101A0000EE0FFF1FE80FF91FEA56FB4FD283C18389
:101A10002FBF63ED72E086E395E0C2DEC701B6DD5D
:101A200068EE73E080E090E00E940704D8015E96C3
:101A3000EC918E2F90E0FC01EE0FFF1FE80FF91FD5
:101A4000EA56FB4F80818F7B8083DF91CF911F917E
:101A50000F91FF90EF90DF90CF90BF907F906F90AD
:101A60005F904F900895823061F4109290008093BF
:101A70009100109295001092940088BB80937100A1
:101A80005DCF833069F41092A00082E08093A100C2
:101A90001092A5001092A40089BB809372004ECFD3
:101AA00081114CCF1092200182E08093210110928D
:101AB0002501109224018ABB809373003FCFCF93FE
:101AC000DF93EC018EED92E092DD64EB70E08A81B1
:101AD0009B81D9DE81E090E0DF91CF910895CF9393
:101AE000DF93EC018885882331F06AE070E08A8119
:101AF0009B81C9DE1886CE013CDC81E090E0DF915D
:101B0000CF910895CF92DF92EF92FF92CF93DF9320
:101B1000EC012FDC8C859D8561E081329E440CF4C4
:101B200060E088E10E9484038A819B8163DB6B0112
:101B30007C0120E030E040E05FE3688579858A85BC
:101B40009B850E94991B9B01AC01C701B6010E94B5
:101B50002E1C18168CF480EE92E049DD70E060E0F7
:101B60008A819B8190DE90E080E0DF91CF91FF90B1
:101B7000EF90DF90CF90089583EF92E038DD66EE2E
:101B800070E08A819B817FDE0E9437047D876C87AD
:101B9000EACFCF92DF92EF92FF920F931F93CF93F2
:101BA000DF93EC01E6DB6C817D81072E000C880B56
:101BB000990B0E94281A6B017C018A819B811ADB98
:101BC00020E030E040E85FE30E94991B9B01AC01FC
:101BD000C701B6010E942E1C181624F40E94370477
:101BE000798768878A819B8105DB20E030E04CE5BE
:101BF00053E40E942E1C18166CF18A819B81FADA3C
:101C000020E030E040EA51EC0E94221A87FD2CC00F
:101C10008A819B81EFDA20E030E04CE852E40E94B8
:101C20002E1C181624F565E073E086E395E0B8DD18
:101C30008A819B81DFDAECDCCE0162DAC1E0D0E0A0
:101C4000CE01DF91CF911F910F91FF90EF90DF9028
:101C5000CF900895CEEFDFEF61E972E086E395E083
:101C60009FDDCE0193DCECCFCDEFDFEFF5CF0E940F
:101C7000370408851985012E000C220B330B601BDD
:101C8000710B820B930B6138784A8F4F9F4F58F638
:101C9000D0E0C0E0D5CFCF92DF92EF92FF92CF930A
:101CA000DF93EC0166DB88858823B1F069E173E09E
:101CB00086E395E075DD4AE060E67AEE80E090E04C
:101CC00020DC62E872E086E395E00CDC18866FE0C9
:101CD00070E08A819B81D7DD0E943704C984DA8451
:101CE000EB84FC849B01AC012C193D094E095F0972
:101CF00069017A0165E373E086E395E051DD4AE02E
:101D0000C701B601FEDB62E872E086E395E0EADB3C
:101D100081E090E031E6C3163AEED306E104F10427
:101D200010F490E080E0DF91CF91FF90EF90DF9092
:101D3000CF900895EF92FF920F931F93CF93DF936D
:101D4000CDB7DEB7A7970FB6F894DEBF0FBECDBFF5
:101D50008C017B018FEF90E0F801958384831782DB
:101D600016827383628382E192E09183808380E0B4
:101D700090E0A6E6B3E480879187A287B3871586B3
:101D80001486CB0137DAF8016087718782879387E1
:101D90001BA21AA21DA21CA21FA21EA28E010F5FCF
:101DA0001F4F22E044E00E949017009721F1FC01B0
:101DB00001900020E9F73197AF01481B590BBC0196
:101DC000CE01829640DBAE014E5D5F4F63E070E076
:101DD000C701F5D98AA19BA10E94FA1CA7960FB64C
:101DE000F894DEBF0FBECDBFDF91CF911F910F9151
:101DF000FF90EF9008958AA19BA1009711F00E9497
:101E0000FA1C1BA21AA21FA21EA21DA21CA2DBCF9B
:101E10002F923F924F925F926F927F928F929F92FA
:101E2000AF92BF92CF92DF92EF92FF920F931F93E8
:101E3000CF93DF93CDB7DEB72E970FB6F894DEBF02
:101E40000FBECDBF8C01FC0111AE10AEEE24EA94A2
:101E5000F12C9CE3292E92E0392E28E1422E22E03B
:101E6000522E3EE1632E32E0732E44E2C42E42E055
:101E7000D42E5AE2A52E52E0B52EF80180AD91ADD8
:101E800026A937A9821793070CF0CDC084809580CE
:101E90001A8219821C821B821E821D8226E0289FC4
:101EA000F001299FF00D1124E00FF11F62AD73AD19
:101EB0006115710529F046AD57ADCE010196C3DA23
:101EC000AE014F5F5F4F61E070E0C40178D9898156
:101ED0009A810E94FA1C6DE373E086E395E060DC72
:101EE000F80180AD91AD26E0289FF001299FF00D0B
:101EF0001124FA96E00FF11F4481558160817181B0
:101F000086E395E00E94EA0162E872E086E395E0EC
:101F1000E9DAF80180AD91AD0097B1F48481958143
:101F2000FE82ED8218861F829C838B83BA82A982EF
:101F3000CE010196C4DD892BD9F3F80180AD91ADB6
:101F4000019691AF80AF99CF8130910581F4848162
:101F50009581FE82ED8218861F829C838B83DA82B4
:101F6000C982CE0101961DDC892BD9F3E6CF8230E0
:101F7000910591F484819581FE82ED8218861F82FD
:101F80009C838B837A8269821A861986CE01019698
:101F900000DE892BD9F3D1CF8330910591F4848170
:101FA0009581FE82ED8218861F829C838B835A82E4
:101FB0004982F1E0F987CE01019691DD892BD9F3B1
:101FC000BCCF84309105C1F484819581FE82ED827D
:101FD00018861F829C838B833A822982F1E0F987DD
:101FE0000E9437046A877B878C879D87CE01019684
:101FF00052DE892BD9F3A1CF059759F464817581FD
:10200000CE01019697DECE0101967CDD892BD9F3B6
:1020100094CF6DE473E086E395E0C2DBF80180AD18
:1020200091ADB4DA8ACF2E960FB6F894DEBF0FBE0C
:10203000CDBFDF91CF911F910F91FF90EF90DF9077
:10204000CF90BF90AF909F908F907F906F905F9058
:102050004F903F902F9008951F920F920FB60F92BE
:1020600011240BB60F922F933F934F935F936F936F
:102070007F938F939F93AF93BF93EF93FF9386E3E9
:1020800095E00E946002FF91EF91BF91AF919F9107
:102090008F917F916F915F914F913F912F910F9011
:1020A0000BBE0F900FBE0F901F9018951F920F92AE
:1020B0000FB60F9211240BB60F922F938F939F930D
:1020C000EF93FF93E0914605F09147058081E09101
:1020D0004C05F0914D0582FD1DC0908180914F050A
:1020E0008F5F8F7320915005821741F0E0914F056B
:1020F000F0E0EA5CFA4F958F80934F05FF91EF91E6
:102100009F918F912F910F900BBE0F900FBE0F904C
:102110001F9018958081F2CF1F920F920FB60F92E9
:1021200011242F933F938F939F93AF93BF938091ED
:102130008E0490918F04A0919004B09191043091FD
:102140008D0423E0230F2D3758F50196A11DB11DF5
:1021500020938D0480938E0490938F04A093900419
:10216000B09391048091920490919304A09194046F
:10217000B09195040196A11DB11D80939204909396
:102180009304A0939404B0939504BF91AF919F9151
:102190008F913F912F910F900FBE0F901F90189528
:1021A00026E8230F0296A11DB11DD2CF1F920F92D8
:1021B0000FB60F9211240BB60F922F933F934F93AC
:1021C0005F936F937F938F939F93AF93BF93EF939F
:1021D000FF938091B900887F803609F44DC008F0E4
:1021E00040C0883209F4A9C028F5803109F49DC0A7
:1021F000C8F4882309F4FBC0883009F496C0FF9125
:10220000EF91BF91AF919F918F917F916F915F916E
:102210004F913F912F910F900BBE0F900FBE0F90DB
:102220001F901895883109F488C0803241F7809357
:102230006A0414C0803409F49DC040F48033B9F3BB
:102240008833E9F680936A0485ECB0C0803509F4E0
:1022500085C0883509F496C0883489F60E94440404
:10226000CECF883909F48CC038F5883729F050F47E
:10227000883611F0803719F683E080932D0510928F
:10228000460457C0883809F47BC0803919F080387B
:1022900009F0B5CF80914604803208F071C0E0911A
:1022A000460481E08E0F809346048091BB00F0E0ED
:1022B000EA5DFB4F80833DC0803B39F0E0F4803A1B
:1022C00009F479C0883A09F09ACF84E080932D050B
:1022D0001092250410922404E0912905F0912A051A
:1022E00019958091240481110FC081E0809324040A
:1022F0001092040409C0803C09F4A6CF883C09F47C
:10230000A3CF883B09F07BCFE091250481E08E0FBD
:1023100080932504F0E0EC5FFB4F80818093BB004D
:10232000909125048091240429C0809147048093D2
:10233000BB0085EC8093BC0062CF909169048091D2
:102340006804981758F5E091690481E08E0F809336
:102350006904F0E0E85BFB4F8081E9CFE09169041C
:1023600081E08E0F809369048091BB00F0E0E85B10
:10237000FB4F808390916904809168049817C8F29C
:1023800085E8D8CFE091690481E08E0F80936904DD
:102390008091BB00F0E0E85BFB4F808380912C05CF
:1023A00081115CCF81E080932B0584EA8093BC008F
:1023B00010922D0524CF85EC8093BC0010922D0542
:1023C00080914604803230F4E0914604F0E0EA5D0A
:1023D000FB4F10826091460470E0E0912705F09178
:1023E000280586E294E019951092460408CF1092D1
:1023F0006A0434CF1F920F920FB60F9211240BB6BE
:102400000F922F933F934F935F936F937F938F938D
:102410009F93AF93BF93EF93FF9348E251E064E241
:1024200071E090E080E00E94C407FF91EF91BF91BE
:10243000AF919F918F917F916F915F914F913F915C
:102440002F910F900BBE0F900FBE0F901F901895FD
:102450001F920F920FB60F9211240BB60F922F936B
:102460003F934F935F936F937F938F939F93AF931C
:10247000BF93EF93FF9348EA50E064EA70E083E093
:1024800090E00E94C407FF91EF91BF91AF919F919F
:102490008F917F916F915F914F913F912F910F900D
:1024A0000BBE0F900FBE0F901F9018951F920F92AA
:1024B0000FB60F9211240BB60F922F933F934F93A9
:1024C0005F936F937F938F939F93AF93BF93EF939C
:1024D000FF9348E950E064E970E082E090E00E94F8
:1024E000C407FF91EF91BF91AF919F918F917F9121
:1024F0006F915F914F913F912F910F900BBE0F9075
:102500000FBE0F901F9018951F920F920FB60F924B
:1025100011240BB60F922F933F934F935F936F93BA
:102520007F938F939F93AF93BF93EF93FF9348E86D
:1025300050E064E870E081E090E00E94C407FF9101
:10254000EF91BF91AF919F918F917F916F915F912B
:102550004F913F912F910F900BBE0F900FBE0F9098
:102560001F901895E6E3F5E01382128288EE93E05F
:10257000A0E0B0E084839583A683B78322E632E0AF
:102580003183208325EC30E03587248724EC30E04C
:102590003787268720EC30E0318B208B21EC30E030
:1025A000338B228B22EC30E0358B248B26EC30E011
:1025B000378B268B118E128E138E148EE3EDF5E081
:1025C0001382128284839583A683B78384E792E083
:1025D00091838083EFEDF5E01682178210861186D5
:1025E000128613861486158616861786108A118A17
:1025F000128A138A148A158A0895CF93DF93CDB770
:10260000DEB72E970FB6F894DEBF0FBECDBF78941D
:1026100084B5826084BD84B5816084BD85B58260E7
:1026200085BD85B5816085BD80916E008160809398
:102630006E00109281008091810082608093810001
:102640008091810081608093810080918000816011
:10265000809380008091B10084608093B10080916C
:10266000B00081608093B00080919100826080937F
:102670009100809191008160809391008091900001
:102680008160809390008091A10082608093A1007E
:102690008091A10081608093A1008091A000816061
:1026A0008093A0008091210182608093210180911C
:1026B00021018160809321018091200181608093BC
:1026C000200180917A00846080937A0080917A0062
:1026D000826080937A0080917A00816080937A0092
:1026E00080917A00806880937A001092C1001092E5
:1026F00021061092220610922306109224061092B0
:10270000E1051092E2051092E3051092E4050E94A3
:1027100037046B017C014B015C0128EB820E2BE03E
:10272000921EA11CB11C0E9437046C157D058E05FC
:102730009F0528F086169706A806B906A0F768EE4A
:1027400073E080E090E00E9407040E94C2010E94B2
:1027500037046093E1057093E2058093E30590935D
:10276000E40567E573E086E395E01AD80E94370434
:102770006B017C014B015C013AE0830E911CA11CB2
:10278000B11C0E9437046C157D058E059F0528F04D
:1027900086169706A806B906A0F781E08093F5058E
:1027A0000E9437046093E1057093E2058093E3058E
:1027B0009093E40568E673E086E395E00E94D00B11
:1027C00082E390E00E945E1C7C0160E089E10E944F
:1027D000B103E1EFF2E0E491D7011496EC93149782
:1027E000EBEAF2E0E491F0E0EE0FFF1FE858FD4F56
:1027F00085919491F701968385831786118A108AB3
:102800001686158614861386128611861086178200
:102810005701F2E1AF0EB11CC70104965B969C9381
:102820008E935A975C961C925C975D961C925D976E
:1028300080912605803308F0E5C291E0980F9093CF
:1028400026055E968C9390E0FC01EE0FFF1FE80FCB
:10285000F91FEA56FB4F88EB9BE09283818384E368
:10286000D70191968C9391978AE092968C93929748
:1028700084E690E095969C938E93949760E084E331
:102880000E94B10360E0F70182A10E94B10360E001
:10289000D70191968C910E94840360E0F70182A198
:1028A0000E9484036701F6E2CF0ED11CD7019996EE
:1028B0001C921E92989780E392E097969C938E9339
:1028C000969787E29A968C939A9784E19F968C9339
:1028D0009F9784E0D0968C93D097D1961C920E94BB
:1028E000C2018FE0F70183A300E020E050E040E068
:1028F0006AE0C70181960E941E071092310510926E
:10290000300510922F0510922E0510922D0581E0B2
:1029100080932C0510922B0561E084E10E948403D2
:1029200061E085E10E9484038091B9008E7F8093ED
:10293000B9008091B9008D7F8093B90088E48093BD
:10294000B80085E48093BC0088E192E090932A056A
:102950008093290589E192E09093280580932705CB
:10296000D7019B961C929B97D0968C91D0978230E2
:1029700018F098E09B969C93F70186A762E370E0BD
:1029800080E090E00E940704D701D1966C91C601C7
:102990000E94F80468EE73E080E090E00E94070473
:1029A00060E3C6010E9486080BE416E4C8010197A3
:1029B000F1F760E3C6010E948608C8010197F1F7AC
:1029C00060E3C6010E94860883E592E00197F1F773
:1029D00060E2C6010E948608F70163A5606240E0DC
:1029E000C6010E949C0884E0D7019C968C9340E02D
:1029F0006CE0C6010E949C0840E061E0C6010E94B4
:102A00009C080BE31FE1C8010197F1F782E0F70191
:102A100085A740E066E0C6010E949C0840E062E0B5
:102A2000C6010E949C08C8010197F1F788E0D70110
:102A3000D1968C9360E0C6010E94F80440E060E00B
:102A4000C6010E94B1086FE673E0C6010E94D00B78
:102A5000F701158E148E53E0752E6624639465017C
:102A6000F8E0CF0ED11CD7015C968C905C9781105A
:102A700038C05A96ED91FC915B97138615861486A3
:102A8000128611861086178216821582148213828E
:102A900052961C9252975A960D911C91F801858579
:102AA000882309F4B3C1D8011B961C921B971D966D
:102AB0001C921D971C961C92D70152968C918823CC
:102AC00051F067E0C5010E945E0588248394F701F8
:102AD000918D9813812CD7015C968C927A94711009
:102AE000C2CFC7010E94FA088EE590E0E7D68C01BC
:102AF000FC01F382E28288E492E09183808336963F
:102B0000C801C69622E432E0CC24CA94D12C318389
:102B10002083D582C4821782168238968E179F072B
:102B2000B1F7D801D9961C921E92D89764E873E049
:102B3000C801CA960E94620A69E873E0C801805C15
:102B40009F4F0E94620A64E973E0C8018A5B9F4F4D
:102B50000E94620A69E973E0C801845B9F4F0E948A
:102B6000620A67EA73E0C8018E5A9F4F0E94620AA8
:102B70006AEB73E0C801885A9F4F0E94620AF8010D
:102B8000F582E48286E090E097AB86ABF186E08642
:102B9000D386C28615861486F18AE08AD38AC28AD1
:102BA000158A148AF18EE08ED38EC28E158E148E05
:102BB000F1A2E0A2D3A2C2A215A214A20E943704DD
:102BC000D8019996FC92EE9298979B96DC92CE92C1
:102BD0009A979D961C921E929C97B701CE010196E2
:102BE000A9D88B819C81F80191AB80AB8D819E81AE
:102BF00093AB82AB8F81988595AB84ABC80108D924
:102C000084EF882E99249394A12CB12C0E94370430
:102C1000672B682B692B09F46BC10E943704009164
:102C20003205109133052091340530913505601738
:102C300071078207930708F46AC100913205109169
:102C4000330520913405309135056B017C01C01AA4
:102C5000D10AE20AF30A970186010A3F110521050C
:102C6000310508F44DC160933205709333058093AC
:102C70003405909335058092ED059092EE05A09273
:102C8000EF05B092F0051092F1051092F205109246
:102C9000F3051092F4058091E5059091E605A09169
:102CA000E705B091E8058093E9059093EA05A093C4
:102CB000EB05B093EC050E9437046093E505709333
:102CC000E6058093E7059093E80586E395E00E948A
:102CD0003D02843611F40E94DD090E94370460939E
:102CE000E1057093E2058093E3059093E4050E946B
:102CF00037046B017C016BEC73E086E395E00E9486
:102D0000D00B4AE061E070E080E090E00E94810A30
:102D100062ED73E086E395E00E94D00B4AE0C701C4
:102D2000B6010E94810A64ED73E086E395E00E949B
:102D3000D00B8091E5059091E605A091E705B09153
:102D4000E805A7019601281B390B4A0B5B0BCA014A
:102D5000B9014AE00E94810A64ED73E086E395E0E0
:102D60000E94D00B6091E5057091E6058091E70522
:102D70009091E8050091E9051091EA052091EB0595
:102D80003091EC05601B710B820B930B4AE00E94A3
:102D9000810A66ED73E086E395E00E94D00B0E9405
:102DA00037044AE00E94810A88ED93E00E94F70A06
:102DB0000E9437046B017C012B013C0135E0430E7E
:102DC000511C611C711C0E9437046C157D058E0519
:102DD0009F0528F04616570668067906A0F786E391
:102DE00095E00E943D02843611F40E94DD090E94A4
:102DF00037046093E5057093E6058093E7059093AB
:102E0000E8057EC08FEFF701868F29CDC8010E94AB
:102E10001106811105C0F8011386158614864CCE63
:102E200060EFC8010E94C80555245394312C212C11
:102E300099249394C8010E947505482EC8010E94E8
:102E40007505F1E04F121BC08130D9F5E0E4E915BA
:102E500008F029CED8011B962C921B97211002C096
:102E60001D966C92F8018381882309F41CCE339659
:102E7000D50181918D93AC15BD05D9F71DCEE32DFC
:102E8000F0E0481214C0D8011B968C911B9798163D
:102E9000B0F4AE0FBF1F13968C91852191F4412C95
:102EA000B8E0B91518F0D8011C969C92292CE00FB7
:102EB000F11F8381952D9095892383830AC0891101
:102EC000EECFF801E30DF11D83818529838344242E
:102ED0004394642DC8010E9499059394550C19F4EC
:102EE000339455245394B7E0B31508F0A3CFAECF75
:102EF0000E943704623071058105910508F08DCE7E
:102F000080E79FE60E94C60A0E94ED027FCE609392
:102F100032057093330580933405909335058DCE3B
:102F2000EF920F931F93CF93DF93E80134E047FDB7
:102F300034E1042E000C550B57FF03C05195419509
:102F40005109E32E022F242FAE012CD0CE01DF91A8
:102F5000CF911F910F91EF900895FC018827992739
:102F6000E89421912032E9F3293010F02E30C8F393
:102F70002B3239F02D3231F4689403C00BD0820F1C
:102F8000911D219120532A30C8F31EF4909581950C
:102F90009F4F08957AE0979F902D879F802D910DE8
:102FA000112408958F929F92AF92BF92CF92DF9299
:102FB000EF92FF920F931F93CF93DF9300D000D037
:102FC00000D0CDB7DEB76A01F22EB02E102FFBE392
:102FD000AF2EA01608F41BE31F5F012F27E0AE0100
:102FE0004F5F5F4F57D1BC018981982F9970913005
:102FF00009F44EC09BE2E1FC04C09E2D9170E0FC00
:1030000049C05E2D5071E82FE87083FF55C084E001
:10301000911101C083E0EF2DE81B8F1508F0E0E06F
:10302000D6018E2F20E25523C9F1992329F0D6012C
:103030009C93C60101966C0196012D5F3F4FE2FE05
:1030400033C08EE4D6018C9391E411969C93119732
:1030500012968C93D9018E2F90E281112AC0E20F33
:10306000F32FF11D10828EEF9FEF29960FB6F89483
:10307000DEBF0FBECDBFDF91CF911F910F91FF90AB
:10308000EF90DF90CF90BF90AF909F908F9008957A
:103090009DE2B7CF90E2B5CF2D9381508111FCCF47
:1030A000CE0ED11CE0E0C1CF8EE6D6018C9391E626
:1030B000CCCF9D938150D1CF482F447082FF3DC02B
:1030C00084E0911101C083E08F1510F4EF2DE81B0F
:1030D000D6018E2F20E2552309F1992329F0D6013C
:1030E0009C93C60101966C0196012D5F3F4FE2FE55
:1030F0001BC089E4D6018C938EE411968C931197B2
:1031000086E412968C93D9018E2F90E2882309F4DD
:10311000A6CF9D938150FACF2D9381508111FCCF82
:10312000CE0ED11CE0E0D9CF89E6D6018C938EE695
:1031300011968C93119786E6E4CF9B0177FF02C02E
:1031400030E020E0A1E0B0E0911102C0B0E0A0E0EA
:10315000F9013196AE0FBF1F8B2C912CBB2009F4C7
:1031600061C05401EFEFAE1ABE0AAA0DBB1DFA16DC
:103170001B0619F014F04F2D4A1B511188C0E3FCB7
:1031800059C07601A42FB0E2A1114FC0C40ED11CCA
:10319000992309F45BC040E0D6011196F6019083B3
:1031A0006D01552309F448C0012F060F9A81582F4D
:1031B000507184FF03C0913309F4015010160CF0D4
:1031C00047C0093008F008E0EEE2FE2E5B01A01ACD
:1031D000B10885019194819491082F3F320729F419
:1031E000D601FC92F60131966F016217730794F1D4
:1031F000021713077CF5DB01A21BB30BAA24A394CF
:10320000B12CAC0EBD1EAA0DBB1D11968C91215088
:103210003109D601119628153905F4F0F60180839D
:103220006D01DBCFB12CA12CA0CFF701B1937F01B1
:10323000A150AACF9111B0CFD601942F50E302C074
:103240005D9391509111FCCFC40ED11C40E0ACCFE6
:1032500001E0BACF80E3DBCF6217730731F4963316
:1032600088F4953311F4552369F0F6018083FD014C
:10327000842F90E2811108C0A40FB11D1C9290E030
:1032800080E0F3CE81E3F1CF91938150F3CF9111A0
:1032900083CF8ACF283008F027E03327DA01990F4F
:1032A000311D87FD916000966105710539F432602A
:1032B0002E5F3D9330E32A95E1F708959F3F30F06C
:1032C00080387105610509F03C5F3C5F3D939130AA
:1032D00008F08068911DDF93CF931F930F93FF92A7
:1032E000EF92192F987F9695E92F96959695E90F6D
:1032F000FF27E25CFE4F99273327EE24FF24A70126
:10330000E70105900894079428F4360FE71EF81E8D
:10331000491F511D660F771F881F991F0694A1F73B
:103320000590079428F4E70EF81E491F561FC11D8B
:10333000770F881F991F661F0694A1F705900794C1
:1033400028F4F80E491F561FC71FD11D880F991F5B
:10335000661F771F0694A1F70590079420F4490F84
:10336000561FC71FD81F990F661F771F881F069407
:10337000A9F784911095177041F0D695C795579588
:103380004795F794E7941A95C1F7E4EEF0E0689456
:103390001590159135916591959105907FE2739502
:1033A000E118F10A430B560BC90BD009C0F7E10C29
:1033B000F11E431F561FC91FD01D7EF4703311F438
:1033C0008A95E6CFE894015030F0080F0AF4002700
:1033D000021708F4202F2395022F7A3328F079E37F
:1033E0007D932A95E9F710C07D932A9589F6069476
:1033F00097956795379517951794E118F10A430B40
:10340000560BC90BD00998F023957E9173957A33AA
:1034100008F070E37C932013B8F77E9170617D9380
:1034200030F0839571E37D9370E32A95E1F71124E1
:10343000EF90FF900F911F91CF91DF91992787FD1A
:103440009095089540D008F481E00895E89409C06B
:1034500097FB3EF490958095709561957F4F8F4FC7
:103460009F4F9923A9F0F92F96E9BB279395F695DD
:10347000879577956795B795F111F8CFFAF4BB0F5B
:1034800011F460FF1BC06F5F7F4F8F4F9F4F16C0BF
:10349000882311F096E911C0772321F09EE8872F49
:1034A000762F05C0662371F096E8862F70E060E005
:1034B0002AF09A95660F771F881FDAF7880F96957E
:1034C000879597F90895990F0008550FAA0BE0E822
:1034D000FEEF16161706E807F907C0F012161306D6
:1034E000E407F50798F0621B730B840B950B39F416
:1034F0000A2661F0232B242B252B21F408950A267C
:1035000009F4A140A6958FEF811D811D08950BD070
:1035100078C069D028F06ED018F0952309F05AC011
:103520005FC01124A2C07ED0A0F3959FD1F3950F68
:1035300050E0551F629FF001729FBB27F00DB11D37
:10354000639FAA27F00DB11DAA1F649F6627B00DC7
:10355000A11D661F829F2227B00DA11D621F739FB0
:10356000B00DA11D621F839FA00D611D221F749FBE
:103570003327A00D611D231F849F600D211D822F05
:10358000762F6A2F11249F5750408AF0E1F088234C
:103590004AF0EE0FFF1FBB1F661F771F881F915059
:1035A0005040A9F79E3F510570F014C05EC05F3FC8
:1035B000ECF3983EDCF3869577956795B795F7958C
:1035C000E7959F5FC1F7FE2B880F911D9695879514
:1035D00097F9089597F99F6780E870E060E0089593
:1035E0009FEF80EC089500240A941616170618061B
:1035F0000906089500240A941216130614060506F7
:103600000895092E0394000C11F4882352F0BB0F87
:1036100040F4BF2B11F460FF04C06F5F7F4F8F4FEA
:103620009F4F089557FD9058440F551F59F05F3F25
:1036300071F04795880F97FB991F61F09F3F79F0D4
:1036400087950895121613061406551FF2CF469556
:10365000F1DF08C0161617061806991FF1CF8695D8
:103660007105610508940895E894BB2766277727BC
:10367000CB0197F90895A1E21A2EAA1BBB1BFD01ED
:103680000DC0AA1FBB1FEE1FFF1FA217B307E40741
:10369000F50720F0A21BB30BE40BF50B661F771F99
:1036A000881F991F1A9469F7609570958095909579
:1036B0009B01AC01BD01CF010895052E97FB16F4C7
:1036C00000940FD057FD05D0D6DF07FC02D046F49A
:1036D00008C050954095309521953F4F4F4F5F4F13
:1036E000089590958095709561957F4F8F4F9F4F6E
:1036F00008950FD0A59F900DB49F900DA49F800DAD
:10370000911D11240895B7FFF4CFF3DF821B930BB3
:103710000895A29FB001B39FC001A39F700D811DAA
:103720001124911DB29F700D811D1124911D0895CA
:103730005058BB27AA270ED064CF55DF30F05ADF90
:1037400020F031F49F3F11F41EF44ACF0EF4E095BF
:10375000E7FB40CFE92F66DF80F3BA1762077307F4
:103760008407950718F071F49EF57ECF0EF4E0956E
:103770000B2EBA2FA02D0B01B90190010C01CA012B
:10378000A0011124FF27591B99F0593F50F4503ED6
:1037900068F11A16F040A22F232F342F4427585FC8
:1037A000F3CF469537952795A795F0405395C9F7E0
:1037B0007EF41F16BA0B620B730B840BBAF0915098
:1037C000A1F0FF0FBB1F661F771F881FC2F70EC037
:1037D000BA0F621F731F841F48F48795779567950A
:1037E000B795F7959E3F08F0B3CF9395880F08F0F3
:1037F0009927EE0F97958795089504D06894B11195
:1038000034CF089517DF88F09F5790F0B92F99278C
:10381000B751A0F0D1F0660F771F881F991F1AF0DB
:10382000BA95C9F712C0B13081F01EDFB1E008953A
:103830001BCF672F782F8827B85F39F0B93FCCF3BB
:10384000869577956795B395D9F73EF490958095D1
:10385000709561957F4F8F4F9F4F089534DE08F428
:103860008FEF089530DE880B990B0895991B79E04E
:1038700004C0991F961708F0961B881F7A95C9F700
:1038800080950895AA1BBB1B51E107C0AA1FBB1F4F
:10389000A617B70710F0A61BB70B881F991F5A95DC
:1038A000A9F780959095BC01CD010895EE0FFF1FFB
:1038B000881F8BBF0790F691E02D19940F931F93EB
:1038C000CF93DF938230910510F482E090E0E09195
:1038D0002706F091280630E020E0B0E0A0E0309725
:1038E00099F42115310509F44AC0281B390B2430FD
:1038F0003105D8F58A819B816115710589F1FB013C
:1039000093838283FE0111C0408151810281138122
:1039100048175907E0F04817590799F4109761F0D4
:1039200012960C93129713961C933296CF01DF9147
:10393000CF911F910F9108950093270610932806A9
:10394000F4CF2115310551F04217530738F0A90182
:10395000DB019A01BD01DF01F801C1CFEF01F9CF11
:103960009093280680932706CDCFFE01E20FF31F28
:10397000819391932250310939832883D7CF2091A5
:10398000250630912606232B41F420910202309126
:1039900003023093260620932506209100023091E1
:1039A00001022115310541F42DB73EB740910402C3
:1039B00050910502241B350BE0912506F091260657
:1039C000E217F307A0F42E1B3F0B2817390778F0F6
:1039D000AC014E5F5F4F2417350748F04E0F5F1F55
:1039E0005093260640932506819391939FCFF0E054
:1039F000E0E09CCFCF93DF930097E9F0FC01329792
:103A000013821282A0912706B0912806ED0130E0C2
:103A100020E01097A1F420813181820F931F209123
:103A20002506309126062817390709F061C0F09362
:103A30002606E0932506DF91CF910895EA01CE177F
:103A4000DF07E8F54A815B819E0141155105B1F719
:103A5000E901FB83EA8349915991C40FD51FEC1703
:103A6000FD0761F4808191810296840F951FE90121
:103A700099838883828193819B838A83F0E0E0E04D
:103A800012968D919C9113970097B9F52D913C91C9
:103A90001197CD010296820F931F20912506309138
:103AA00026062817390739F6309751F5109228065F
:103AB00010922706B0932606A0932506BCCFD38389
:103AC000C28340815181840F951FC817D90761F4C3
:103AD0004E5F5F4F88819981480F591F5183408302
:103AE0008A819B81938382832115310509F0B0CFB0
:103AF000F0932806E09327069ECFFD01DC01C0CF9E
:103B000013821282D7CF4F925F926F927F928F92E1
:103B10009F92AF92BF92CF92DF92EF92FF920F935C
:103B20001F93CF93DF938C01009791F4CB01DF912A
:103B3000CF911F910F91FF90EF90DF90CF90BF90AA
:103B4000AF909F908F907F906F905F904F90B6CE88
:103B5000FC01E60FF71F9C0122503109E217F30721
:103B600008F4AAC0D901CD91DC911197C617D707E7
:103B700018F1C530D10570F0CE010497861797076C
:103B800048F0C61BD70B2297C193D1936D937C93BA
:103B9000CF0130DFC801DF91CF911F910F91FF90CE
:103BA000EF90DF90CF90BF90AF909F908F907F90DD
:103BB0006F905F904F9008955B01AC1ABD0A4C0165
:103BC0008C0E9D1EA0912706B0912806512C412CE9
:103BD000F12CE12C109731F5809125069091260665
:103BE0008815990509F05CC04616570608F058C0BC
:103BF0008091000290910102009741F48DB79EB729
:103C00004091040250910502841B950BE817F907B7
:103C100008F052C0F0932606E0932506F90171835F
:103C20006083B8CF8D919C91119712966C901297EA
:103C300013967C901397A815B90559F56C0142E0CD
:103C4000C40ED11CCA14DB0420F1AC014A195B0973
:103C5000DA011296159780F0628273825183408355
:103C6000D9016D937C93E114F10471F0D70113969F
:103C7000FC93EE9312978ECF22968C0F9D1FF90125
:103C800091838083F301EFCFF0932806E09327061A
:103C900081CF4816590608F42C017D01D3019ACF33
:103CA000CB010CDE7C01009739F0AE01B80107D0E2
:103CB000C801A0DE87016ECF10E000E06BCFFB01F2
:103CC000DC0102C001900D9241505040D8F7089598
:103CD000FB01DC0101900D920020E1F70895F894BA
:023CE000FFCF14
:103CE200000029068000000040001400540000007B
:103CF2000000820D000000006F0D00000000C90DE1
:103D020000000000D10B000000005F0D0000000069
:103D1200F508EA015B054304000000004B0E0000B9
:103D220000005B0500000000080F7C0817023F0638
:103D32005B4F666D7D077F6F777C395E797100001E
:103D420000008202EA011A02CE024B0229023D025F
:103D520000000000CA049E045B0517029704840455
:103D620075040D0A006E616E00696E66006F7666FC
:103D7200004572726F723A20004578697420627948
:103D8200206C617267652074656D703A2000457819
:103D92006974206279206A756D70652074656D7032
:103DA2002E2050726576696F75732074656D702070
:103DB2003A20007331526F746174653A2000310009
:103DC200636C6F73654E6F646553656C656374698C
:103DD2006F6E006F70656E4E6F646553656C6563E0
:103DE20074696F6E004E6F726D616C2065786974D4
:103DF2002E2054656D703A2000746563686E6F6C96
:103E02006F676963616C427265616B54696D656F5E
:103E120075743A200064656C74613A2000437572CF
:103E220072656E742073746174653A20006465660D
:103E320061756C743A2000564D4450565F317C31A6
:103E42005F564D4450560A00564D4450525F004151
:103E5200726475696E6F2069326320323078342063
:103E62004C434400696E6974005072656865617400
:103E7200696E670048656164004865616453656CFA
:103E8200656374696F6E00546563686E6F6C6F670B
:103E92006963616C427265616B00416C636F686F4C
:103EA2006C53656C656374696F6E00564D44504582
:103EB2005F003A323A007C005F564D4450450000A4
:020000023000CC
:10E000000D9489F10D94B2F10D94B2F10D94B2F129
:10E010000D94B2F10D94B2F10D94B2F10D94B2F1F0
:10E020000D94B2F10D94B2F10D94B2F10D94B2F1E0
:10E030000D94B2F10D94B2F10D94B2F10D94B2F1D0
:10E040000D94B2F10D94B2F10D94B2F10D94B2F1C0
:10E050000D94B2F10D94B2F10D94B2F10D94B2F1B0
:10E060000D94B2F10D94B2F10D94B2F10D94B2F1A0
:10E070000D94B2F10D94B2F10D94B2F10D94B2F190
:10E080000D94B2F10D94B2F10D94B2F10D94B2F180
:10E090000D94B2F10D94B2F10D94B2F10D94B2F170
:10E0A0000D94B2F10D94B2F10D94B2F10D94B2F160
:10E0B0000D94B2F10D94B2F10D94B2F10D94B2F150
:10E0C0000D94B2F10D94B2F10D94B2F10D94B2F140
:10E0D0000D94B2F10D94B2F10D94B2F10D94B2F130
:10E0E0000D94B2F141546D656761323536300041AF
:10E0F000726475696E6F206578706C6F72657220DE
:10E1000073746B3530305632206279204D4C530099
:10E11000426F6F746C6F616465723E004875683F52
:10E1200000436F6D70696C6564206F6E203D200048
:10E130004350552054797065202020203D20005FF9
:10E140005F4156525F415243485F5F3D2000415658
:10E1500052204C696243205665723D20004743437C
:10E160002056657273696F6E203D20004350552024
:10E1700049442020202020203D20004C6F7720663D
:10E18000757365202020203D20004869676820665F
:10E190007573652020203D200045787420667573D6
:10E1A00065202020203D20004C6F636B2066757336
:10E1B000652020203D20004D617220203720323024
:10E1C000313300312E362E3800342E332E350056A2
:10E1D00023202020414444522020206F7020636F70
:10E1E00064652020202020696E73747275637469E1
:10E1F0006F6E2061646472202020496E74657272B3
:10E20000757074006E6F20766563746F7200726A49
:10E210006D702020006A6D70200057686174207056
:10E220006F72743A00506F7274206E6F7420737541
:10E2300070706F72746564004D7573742062652030
:10E2400061206C6574746572002000577269747483
:10E25000696E672045450052656164696E672045B7
:10E26000450045452065727220636E743D00504F35
:10E27000525400303D5A65726F2061646472003FF1
:10E280003D43505520737461747300403D454550C3
:10E29000524F4D207465737400423D426C696E6B41
:10E2A000204C454400453D44756D70204545505215
:10E2B0004F4D00463D44756D7020464C415348001B
:10E2C000483D48656C70004C3D4C69737420492F83
:10E2D0004F20506F72747300513D51756974005234
:10E2E0003D44756D702052414D00563D73686F7707
:10E2F00020696E7465727275707420566563746FF0
:10E30000727300593D506F727420626C696E6B00BD
:10E310002A0011241FBECFEFD1E2DEBFCDBF01E046
:10E320000CBF12E0A0E0B2E0EEE1FDEF03E00BBFB6
:10E3300002C007900D92A030B107D9F712E0A0E01B
:10E34000B2E001C01D92AE30B107E1F70F9460F367
:10E350000D948DFE01E20EBF0FEF0DBF11241FBE05
:10E360000D9460F30D9400F020E030E040ED57E0B4
:10E3700005C0FA013197F1F72F5F3F4F2817390792
:10E38000C0F308959C01260F311DC901A0E0B0E043
:10E390002F5F3F4FABBFFC018791882361F08093D3
:10E3A000C6008091C00086FFFCCF8091C0008064D1
:10E3B0008093C000EACF08958DE08093C6008091DD
:10E3C000C00086FFFCCF8091C00080648093C000B5
:10E3D0008AE08093C6008091C00086FFFCCF8091C8
:10E3E000C00080648093C00008950F94C2F10F9420
:10E3F000DCF10895FC019081992359F09093C600B7
:10E400008091C00086FFFCCF8091C0008064809323
:10E41000C0003196992379F70895282F982F929567
:10E420009F70892F805D8A3308F0895F8093C600D2
:10E430008091C00086FFFCCF8091C00080648093F3
:10E44000C000822F8F70982F905D9A3308F0995FEB
:10E450009093C6008091C00086FFFCCF8091C000E1
:10E4600080648093C00008959C01FB01853691056E
:10E470001CF46330710594F0C90164E670E00F94F8
:10E480002EFE605D7F4F6093C6008091C00086FFC6
:10E49000FCCF8091C00080648093C0002B30310598
:10E4A00014F43297B4F0C90164E670E00F942EFEC4
:10E4B0006AE070E00F942EFE605D7F4F6093C600AF
:10E4C0008091C00086FFFCCF8091C0008064809363
:10E4D000C000C9016AE070E00F942EFEC0968093E0
:10E4E000C6008091C00086FFFCCF8091C000806490
:10E4F0008093C00008951F93182F8EE692EE60E07F
:10E500000F94C2F11093C6008091C00086FFFCCF2B
:10E510008091C00080648093C0000F94DCF11F9153
:10E5200008952F923F924F925F926F927F928F92B7
:10E530009F92AF92BF92CF92DF92EF92FF920F9392
:10E540001F93DF93CF93CDB7DEB762970FB6F894E2
:10E55000DEBF0FBECDBF382E622ECA01DB015C01CB
:10E560006D01772420E2222E2E010894411C511CBB
:10E570008BC081E0A81680E0B80681E0C80680E084
:10E58000D80628F0C601AA27BB270F940DF2BB2797
:10E59000AD2D9C2D8B2D0F940DF28A2D0F940DF225
:10E5A0002092C6008091C00086FFFCCF8091C00001
:10E5B00080648093C0009DE29093C6008091C0006B
:10E5C00086FFFCCF8091C00080648093C0002092C1
:10E5D000C6008091C00086FFFCCF8091C00080649F
:10E5E0008093C00019828601750188249924A1E0D6
:10E5F0003A1651F03A1620F0B2E03B1661F409C029
:10E600000BBFF701779007C0C7010F9477FE782EF4
:10E6100002C0F7017080872D0F940DF22092C60082
:10E620008091C00086FFFCCF8091C0008064809301
:10E63000C000872D8052F401EF70F0708F3520F408
:10E64000E40DF51D708204C0E40DF51D8EE280839B
:10E650000894E11CF11C011D111D0894811C911CE2
:10E6600090E18916910409F0C2CF80E190E0A0E02A
:10E67000B0E0A80EB91ECA1EDB1E198AC2010F9493
:10E68000FAF10F94DCF16A94662009F072CF629679
:10E690000FB6F894DEBF0FBECDBFCF91DF911F91B3
:10E6A0000F91FF90EF90DF90CF90BF90AF909F9031
:10E6B0008F907F906F905F904F903F902F90089534
:10E6C0002F923F924F925F926F927F928F929F9282
:10E6D000AF92BF92CF92DF92EF92FF920F931F9370
:10E6E000DF93CF93CDB7DEB7CD53D1400FB6F894BB
:10E6F000DEBF0FBECDBF01E20EBF0FEF0DBF94B75F
:10E70000F894A89514BE80916000886180936000A1
:10E7100010926000789493FF05C0E0910002F091A0
:10E7200001021995279A2F9A8091C00082608093E8
:10E73000C00080E18093C40088E18093C1000000A4
:10E74000EE24FF24870144E0A42EB12CCC24DD2448
:10E7500024C0C5010197F1F70894E11CF11C011DCB
:10E76000111D21E2E2162EE4F20620E0020720E06D
:10E77000120718F031E0C32ED12CC801B70127ECE5
:10E780003BE140E050E00F9441FE611571058105C9
:10E79000910519F485B1805885B98091C00087FD35
:10E7A00003C0C114D104A9F2A6014F5F5F4FC25E3E
:10E7B000DE4F59834883CE51D140C25EDE4F8881FF
:10E7C0009981CE51D140019711F00D9410FEC05D9A
:10E7D000DE4F19821882C053D14060E0C15DDE4F28
:10E7E0001882CF52D14088249924C35DDE4F19820C
:10E7F0001882CD52D140C05EDE4F188219821A8233
:10E800001B82C052D140CE5CDE4F188219821A8220
:10E810001B82C253D140EE24FF2487010BBFF701B6
:10E8200007911691C45CDE4F19830883CC53D14005
:10E830000D940BFEC25EDE4F28813981CE51D1404E
:10E840002130310509F52091C600C25EDE4F1982E4
:10E850001882CE51D14022C02F5F3F4F4F4F5F4FA4
:10E86000213082E138078AE7480780E0580780F0C6
:10E87000C45CDE4FE881F981CC53D140EF5FFF4F9C
:10E8800019F0EE27FF27099420E030E040E050E047
:10E890008091C00087FFE0CF2091C600C35DDE4FAE
:10E8A00048815981CD52D1404F5F5F4FC35DDE4FEC
:10E8B00059834883CD52D140213209F063C64A3092
:10E8C000510508F05FC60894811C911C53E0851621
:10E8D000910409F059C600E010E018C081E280936D
:10E8E000C6008091C00086FFFCCF8091C00080648C
:10E8F0008093C0002F5F3F4F2931310579F70F9486
:10E90000DCF10F5F1F4F0530110519F020E030E0FA
:10E91000E5CF10920A0210920B0210920C02109294
:10E920000D02109206021092070210920802109235
:10E930000902109202021092030210920402109235
:10E9400005028FEE90EE60E00F94F5F180E191EE1C
:10E9500060E00F94C2F18091C00087FFFCCF9091DE
:10E96000C600903608F09F759032B8F09093C600BC
:10E970008091C00086FFFCCF8091C00080648093AE
:10E98000C000A0E2A093C6008091C00086FFFCCF2B
:10E990008091C00080648093C000983409F4D7C18E
:10E9A0009934B8F4923409F459C1933458F490333B
:10E9B00019F1903308F4E3C59F33A1F1903409F0C5
:10E9C000DEC5BDC0953409F470C1963409F0D7C5D1
:10E9D00098C1923509F42BC2933538F49C3409F46C
:10E9E000F5C1913509F0CBC518C2963509F445C279
:10E9F000993509F0C4C567C483E792EE62E00F94CD
:10EA0000F5F110920602109207021092080210927D
:10EA1000090210920A0210920B0210920C0210923C
:10EA20000D0213C18FE792EE62E00F94F5F18FEEC5
:10EA300090EE60E00F94F5F181E291EE60E00F94CA
:10EA4000C2F187EB91EE60E00F94F5F180E391EE77
:10EA500060E00F94C2F184EE90EE60E00F94F5F167
:10EA60008FE391EE60E00F94C2F186E090E061E008
:10EA700070E00F9434F20F94DCF18DE591EE60E0DC
:10EA80000F94C2F189EC91EE60E00F94F5F18EE401
:10EA900091EE60E00F94C2F183EC91EE60E00F9490
:10EAA000F5F18CE691EE60E00F94C2F18EE10F94E7
:10EAB0000DF288E90F940DF281E00F940DF20F949E
:10EAC000DCF18BE791EE60E00F94C2F119E0E0E039
:10EAD000F0E010935700E4918E2F0F940DF20F94F5
:10EAE000DCF18AE891EE60E00F94C2F1E3E0F0E03F
:10EAF00010935700E4918E2F0F940DF20F94DCF1D8
:10EB000089E991EE60E00F94C2F1E2E0F0E0109349
:10EB10005700E4918E2F0F940DF20F94DCF188EAE8
:10EB200091EE60E00F94C2F1E1E0F0E01093570045
:10EB30001491812F0F940DF20F94DCF107CF8BE825
:10EB400092EE62E00F94F5F18BE492EE60E00F94A8
:10EB5000F5F10F94DCF100E010E019C0C8016F2D51
:10EB60000F947FFEFF2031F489E492EE60E00F9471
:10EB7000C2F10BC0F092C6008091C00086FFFCCFAE
:10EB80008091C00080648093C0000F5F1F4FC80158
:10EB900081519F41A0E0B0E0ABBFFC01F790BAE229
:10EBA000FB1621F0E2E000301E07C1F60F94DCF105
:10EBB0000F94DCF187E592EE60E00F94F5F10F948D
:10EBC000DCF1CC24DD2400E010E01EC0C8010F946D
:10EBD00077FEF82E882331F489E492EE60E00F94FA
:10EBE000C2F10BC08093C6008091C00086FFFCCFAD
:10EBF0008091C00080648093C000FE1419F00894D6
:10EC0000C11CD11C0F5F1F4FC80181519F41A0E063
:10EC1000B0E0ABBFFC01E790FAE2EF1621F022E092
:10EC20000030120799F60F94DCF10F94DCF182E6C4
:10EC300092EE60E00F94C2F1C60161E070E00F94C3
:10EC400034F20F94DCF10F94DCF110920202109276
:10EC50000302109204021092050278CE89E992EE26
:10EC600062E00F94F5F1279A2F9A16C02F9880E052
:10EC700090E0E0EDF7E03197F1F7019684369105E9
:10EC8000C1F72F9A80E090E0E0EDF7E03197F1F7DF
:10EC9000019684369105C1F78091C00087FFE6CFC9
:10ECA0008091C00087FFFCCF64C485EA92EE62E0E9
:10ECB0000F94F5F140910202509103026091040219
:10ECC0007091050281E020E10F9491F2809102029F
:10ECD00090910302A0910402B091050280509F4FD1
:10ECE000AF4FBF4F8093020290930302A0930402A0
:10ECF000B093050280509041A040B04008F426CE69
:10ED0000A4CF83EB92EE62E00F94F5F140910602FE
:10ED100050910702609108027091090280E020E1A1
:10ED20000F9491F28091060290910702A09108023F
:10ED3000B091090280509F4FAF4FBF4F80930602A2
:10ED400090930702A0930802B0930902FFCD80ECD4
:10ED500092EE62E00F94F5F183E792EE60E00F949B
:10ED6000F5F18FE792EE60E00F94F5F18BE892EE0B
:10ED700060E00F94F5F189E992EE60E00F94F5F10F
:10ED800085EA92EE60E00F94F5F183EB92EE60E09D
:10ED90000F94F5F180EC92EE60E00F94F5F187ECC2
:10EDA00092EE60E00F94F5F188ED92EE60E00F9442
:10EDB000F5F18FED92EE60E00F94F5F18AEE92EEB0
:10EDC00060E00F94F5F183E093EEBDCD87EC92EE19
:10EDD00062E00F94F5F181E40F947BF282E40F94EA
:10EDE0007BF283E40F947BF284E40F947BF285E45E
:10EDF0000F947BF286E40F947BF287E40F947BF20E
:10EE000088E40F947BF28AE40F947BF28BE40F94F6
:10EE10007BF28CE40F947BF299CD88ED92EE62E068
:10EE20000F94F5F1772473948824992409C48FED05
:10EE300092EE62E00F94F5F140910A0250910B02BC
:10EE400060910C0270910D0282E020E10F9491F22A
:10EE500080910A0290910B02A0910C02B0910D02D8
:10EE600080509F4FAF4FBF4F80930A0290930B0289
:10EE7000A0930C02B0930D0269CD8AEE92EE62E08F
:10EE80000F94F5F184EE90EE60E00F94F5F18FECC5
:10EE900091EE60E00F94F5F1662477244301CC5D98
:10EEA000DE4F19821882C452D140D401C301B695F5
:10EEB000A79597958795CA5DDE4F88839983AA8326
:10EEC000BB83C652D140CC5DDE4FA881B981C4520C
:10EED000D1401196CC5DDE4FB983A883C452D14096
:10EEE000CD0162E070E00F9434F2B0E2B093C6005E
:10EEF0008091C00086FFFCCF8091C0008064809329
:10EF0000C000EDE2E093C6008091C00086FFFCCF18
:10EF10008091C00080648093C000F0E2F093C6004E
:10EF20008091C00086FFFCCF8091C00080648093F8
:10EF3000C000CA5DDE4FE880F9800A811B81C6529D
:10EF4000D140BB27A12F902F8F2D0F940DF2CA5DBA
:10EF5000DE4F8881C652D1400F940DF2B0E2FB2EF5
:10EF6000F092C6008091C00086FFFCCF8091C00067
:10EF700080648093C0000DE30093C6008091C000C0
:10EF800086FFFCCF8091C00080648093C00010E2B7
:10EF90001093C6008091C00086FFFCCF8091C00016
:10EFA00080648093C0008BBEF3012791C65DDE4F65
:10EFB0002883CA52D140A22EBB24CC24DD2408943D
:10EFC000611C711C811C911C8BBEF3018791282E42
:10EFD0003324442455240894611C711C811C911C09
:10EFE0008BBEF3013791C55DDE4F3883CB52D140E4
:10EFF0000894611C711C811C911C8BBEF30147910C
:10F00000C45DDE4F4883CC52D140ADEFEA2EAFEF66
:10F01000FA2EAFEF0A2FAFEF1A2F6E0C7F1C801E57
:10F02000911E142D032DF22CEE24EA0CFB1C0C1D5A
:10F030001D1D0F940DF220E22093C6008091C000A8
:10F0400086FFFCCF8091C00080648093C000C65DC5
:10F05000DE4F8881CA52D1400F940DF230E23093D6
:10F06000C6008091C00086FFFCCF8091C000806404
:10F070008093C000C45DDE4F8881CC52D1400F9494
:10F080000DF240E24093C6008091C00086FFFCCFA5
:10F090008091C00080648093C000C55DDE4F888190
:10F0A000CB52D1400F940DF250E25093C6008091A4
:10F0B000C00086FFFCCF8091C00080648093C000B8
:10F0C0008FEFE8168FEFF80680E0080780E018075A
:10F0D00031F484E092EE60E00F94C2F1DFC0D80119
:10F0E000C7018070907CA070B0708050904CA040A0
:10F0F000B040D1F52FEF3FE340E050E0E222F322B1
:10F1000004231523CA5DDE4FA880B980CA80DB8046
:10F11000C652D140AE0CBF1CC01ED11EAA0CBB1CD7
:10F12000CC1CDD1C8EE092EE60E00F94C2F1BB2798
:10F13000A12F902F8F2D0F940DF28E2D0F940DF285
:10F1400030E23093C6008091C00086FFFCCF8091F2
:10F15000C00080648093C0004EE34093C60080915D
:10F16000C00086FFFCCF87C08EE09EEFA0E0B0E03D
:10F17000E822F9220A231B239CE0E91694E9F90608
:10F1800090E0090790E0190709F088C0C45DDE4FE0
:10F19000A881CC52D140EA2EFF2400E010E0102FCD
:10F1A0000F2DFE2CEE24C55DDE4FB881CB52D14031
:10F1B000EB0EF11C011D111DD601C501817090706F
:10F1C000A070B070DC0199278827E80EF91E0A1F8D
:10F1D0001B1F20EF30E040E050E0A222B322C42207
:10F1E000D52241E1AA0CBB1CCC1CDD1C4A95D1F7F1
:10F1F000EA0CFB1C0C1D1D1D81E090E0A0E0B0E0BE
:10F20000282239224A225B2235E1220C331C441C7D
:10F21000551C3A95D1F7E20CF31C041D151D57013E
:10F220006801AA0CBB1CCC1CDD1C85E192EE60E0E1
:10F230000F94C2F1C801AA27BB270F940DF2BB2778
:10F24000A12F902F8F2D0F940DF28E2D0F940DF274
:10F2500090E29093C6008091C00086FFFCCF809121
:10F26000C00080648093C000AEE3A093C60080918C
:10F27000C00086FFFCCF8091C00080648093C000F6
:10F28000C601AA27BB270F940DF2BB27AD2D9C2DDD
:10F290008B2D0F940DF28A2D0F940DF20F94DCF14B
:10F2A000CC5DDE4FE881F981C452D140F99709F471
:10F2B0004DCBF4E0EF2EF12C012D112D6E0C7F1CA7
:10F2C000801E911EF2CD83E093EE62E00F94F5F183
:10F2D0008AE192EE60E00F94C2F18091C00087FF56
:10F2E000FCCF1091C6001F751093C6008091C0001E
:10F2F00086FFFCCF8091C00080648093C0000F9493
:10F30000DCF1812F81548A3108F036C1163409F4BA
:10F3100095C0173490F4133409F44EC0143430F40B
:10F320001134F1F0123409F01DC130C0143409F465
:10F3300059C0153409F016C16BC01A3409F4C4C0A1
:10F340001B3438F4173409F48FC0183409F00AC19B
:10F35000A1C01B3409F4D2C01C3409F003C1E8C0B9
:10F360008FEF81B90DC082B1809582B980E090E0C5
:10F37000E0EDF7E03197F1F70196883C9105C1F790
:10F380008091C00087FFEFCF12B8EFC08FEF84B934
:10F390000DC085B1809585B980E090E0E0EDF7E0A3
:10F3A0003197F1F70196883C9105C1F78091C00033
:10F3B00087FFEFCF15B8D9C08FEF87B90DC088B1DF
:10F3C000809588B980E090E0E0EDF7E03197F1F7C3
:10F3D0000196883C9105C1F78091C00087FFEFCF6F
:10F3E00018B8C3C08FEF8AB90DC08BB180958BB9A7
:10F3F00080E090E0E0EDF7E03197F1F70196883C8E
:10F400009105C1F78091C00087FFEFCF1BB8ADC059
:10F410008FEF8DB90DC08EB180958EB980E090E0F0
:10F42000E0EDF7E03197F1F70196883C9105C1F7DF
:10F430008091C00087FFEFCF1EB897C08FEF80BBD1
:10F440000DC081B3809581BB80E090E0E0EDF7E0F6
:10F450003197F1F70196883C9105C1F78091C00082
:10F4600087FFEFCF11BA81C08FEF83BB0DC084B38C
:10F47000809584BB80E090E0E0EDF7E03197F1F714
:10F480000196883C9105C1F78091C00087FFEFCFBE
:10F4900014BA6BC08FEF809301010FC080910201FD
:10F4A00080958093020180E090E0E0EDF7E03197F5
:10F4B000F1F70196883C9105C1F78091C00087FF64
:10F4C000EDCF1092020151C08FEF809304010FC065
:10F4D0008091050180958093050180E090E0E0ED4A
:10F4E000F7E03197F1F70196883C9105C1F78091DB
:10F4F000C00087FFEDCF1092050137C08FEF8093DA
:10F5000007010FC08091080180958093080180E079
:10F5100090E0E0EDF7E03197F1F70196883C910536
:10F52000C1F78091C00087FFEDCF109208011DC088
:10F530008FEF80930A010FC080910B01809580931B
:10F540000B0180E090E0E0EDF7E03197F1F70196F4
:10F55000883C9105C1F78091C00087FFEDCF1092E4
:10F560000B0103C085E292EEEEC98091C00087FFD7
:10F57000FCCF8091C600EAC988E392EEE4C98CE131
:10F5800091EEE1C988249924933011F1943028F444
:10F59000913089F09230B8F408C0953061F195301F
:10F5A000F0F0963009F048C043C02B3109F042C951
:10F5B00091E06BE13FC96227C15DDE4F2883CF52E6
:10F5C000D14092E037C9B22FA0E0622793E032C960
:10F5D000822F90E0A82BB92B622794E02BC92E3004
:10F5E00009F039C3622795E0C05DDE4F19821882A9
:10F5F000C053D1401FC9E1E0F0E0EC0FFD1FC05D3A
:10F60000DE4F08811981C053D140E00FF11F2083E4
:10F610000F5F1F4FC05DDE4F19830883C053D14079
:10F6200062270A171B0709F005C9D80196E002C92D
:10F63000261709F010C303C0973009F0FBC87724E0
:10F640009981933109F412C19431C8F4963009F4C8
:10F65000D8C0973050F4923009F406C1933009F4C1
:10F660006DC0913009F059C253C0913109F477C08F
:10F67000923108F0BBC0903109F04FC2F5C098310B
:10F6800009F487C0993150F4953109F4EFC09531F0
:10F6900008F4C6C1963109F040C2C2C19A3109F4DA
:10F6A0006CC09A3108F491C09B3109F45BC09D3164
:10F6B00009F033C29D81903359F48F81882311F46E
:10F6C0009EE11CC0813011F091E018C098E916C08D
:10F6D000892F807591F0903539F4E0E0F0E089E011
:10F6E0008093570094910AC0983539F4E3E0F0E034
:10F6F00089E080935700949101C090E01A821B82A8
:10F700008D818C831D829E831F8227E030E009C299
:10F710001A8288E08B8381E48C8386E58D8382E581
:10F720008E8389E48F8383E5888780E589878FE5E9
:10F730008A8782E38B872BE030E0F3C18A818139AD
:10F7400041F0823941F0803911F48FE005C080E04A
:10F7500003C082E001C08AE01A828B8344C0772410
:10F76000739482C08D81882311F48EE12CC0813086
:10F7700011F081E028C088E926C01A82E1E0F0E0BB
:10F7800089E08093570084918B831C8224E030E0D1
:10F79000C8C18B81803589F48C81883039F4E2E0EE
:10F7A000F0E089E08093570084910DC0E0E0F0E044
:10F7B00089E080935700849106C0E3E0F0E089E09F
:10F7C0008093570084911A82DFCF8D81836C99E0FA
:10F7D000E1E0F0E0082E90935700E89507B600FCB2
:10F7E000FDCF1A821B8223E030E09BC180EC8A832C
:10F7F000CE5CDE4F188219821A821B82C253D1401E
:10F800008EC18A8190E0A0E0B0E0582F44273327D2
:10F8100022278B8190E0A0E0B0E0DC0199278827C7
:10F82000282B392B4A2B5B2B8D8190E0A0E0B0E098
:10F83000282B392B4A2B5B2B8C8190E0A0E0B0E089
:10F84000BA2FA92F982F8827282B392B4A2B5B2BCF
:10F85000220F331F441F551FC05EDE4F288339839C
:10F860004A835B83C052D1401A8259C13A81C95C34
:10F87000DE4F3883C753D140CA5CDE4F1882C6536F
:10F88000D1408B81C82EDD24CA5CDE4F488159816E
:10F89000C653D140C42AD52A933109F082C0CE5C28
:10F8A000DE4F88819981AA81BB81C253D1408050AB
:10F8B000904CA340B04030F583E0CE5CDE4FE88052
:10F8C000F9800A811B81C253D140F70100935B008C
:10F8D00080935700E89507B600FCFDCFCE5CDE4F65
:10F8E000088119812A813B81C253D14000501F4FAA
:10F8F0002F4F3F4FCE5CDE4F088319832A833B8313
:10F90000C253D140C05EDE4F488159816A817B81FC
:10F91000C052D140DE011B9631E08C9111962C91A2
:10F9200011971296C75CDE4F2883C953D140C85C3B
:10F93000DE4F1882C853D14090E0C85CDE4FE881AA
:10F94000F981C853D1408E2B9F2B0C01FA01609393
:10F950005B0030935700E89511244E5F5F4F6F4F67
:10F960007F4F0EEFE02E0FEFF02ECE0CDF1CC114F8
:10F97000D10499F685E0C05EDE4F088119812A81A5
:10F980003B81C052D140F80120935B008093570027
:10F99000E89507B600FCFDCF81E180935700E8951C
:10F9A00035C0C05EDE4F88819981AA81BB81C0527B
:10F9B000D140B695A795979587957C018601ABE0D8
:10F9C000AA2EB12CAC0EBD1E0BC0D5016D915D01F0
:10F9D000C7010F947FFE0894E11CF11C01501040F8
:10F9E0000115110591F7A60160E070E0440F551F65
:10F9F000661F771FC05EDE4FE880F9800A811B8199
:10FA0000C052D1404E0D5F1D601F711F1A82C05E33
:10FA1000DE4F488359836A837B83C052D1407FC0C5
:10FA2000FA80C55CDE4FF882CB53D140C65CDE4F16
:10FA30001882CA53D1408B81C82EDD24C65CDE4FAC
:10FA400008811981CA53D140C02AD12A1A828981DA
:10FA5000BE016D5F7F4F843121F59601C05EDE4FA0
:10FA6000E880F9800A811B81C052D1400BBFF701A9
:10FA700087919691DB018C9311969C936E5F7F4FDB
:10FA8000D801C7010296A11DB11DC05EDE4F88835B
:10FA90009983AA83BB83C052D14022503040F1F6F3
:10FAA00036C0C05EDE4F288139814A815B81C052F9
:10FAB000D1400894C108D108760100E010E0089414
:10FAC000C11CD11C0894E11CF11C011D111DE20E8A
:10FAD000F31E041F151F21BDBB27A52F942F832FB5
:10FAE00082BD2F5F3F4F4F4F5F4FF89A80B5DB01CC
:10FAF0008D93BD012E153F054007510761F7C05E8C
:10FB0000DE4F288339834A835B83C052D1409601FC
:10FB10002D5F3F4FFB01108204C080EC8A8322E0FE
:10FB200030E08BE18093C6008091C00086FFFCCF5F
:10FB30008091C00080648093C000C15DDE4FF88179
:10FB4000CF52D140F093C6008091C00086FFFCCF19
:10FB50008091C00080648093C000432F3093C60022
:10FB60008091C00086FFFCCF8091C00080648093AC
:10FB7000C000922F2093C6008091C00086FFFCCF6A
:10FB80008091C00080648093C0008EE08093C600A6
:10FB90008091C00086FFFCCF8091C000806480937C
:10FBA000C00065E1C15DDE4FE880CF52D1406E25D7
:10FBB00069276427FE01319610C090819093C6009A
:10FBC0008091C00086FFFCCF31968091C000806498
:10FBD0008093C0006927215030402115310569F715
:10FBE0006093C6008091C00086FFFCCF8091C0006A
:10FBF00080648093C00085B1805885B9772081F4F6
:10FC0000C15DDE4F0881CF52D1400F5FC15DDE4F35
